{
  "contractName": "MasterChef",
  "abi": [
    {
      "inputs": [
        {
          "internalType": "contract LotlToken",
          "name": "_lotl",
          "type": "address"
        }
      ],
      "stateMutability": "nonpayable",
      "type": "constructor"
    },
    {
      "anonymous": false,
      "inputs": [
        {
          "indexed": true,
          "internalType": "address",
          "name": "user",
          "type": "address"
        },
        {
          "indexed": true,
          "internalType": "uint8",
          "name": "pid",
          "type": "uint8"
        },
        {
          "indexed": false,
          "internalType": "uint256",
          "name": "amount",
          "type": "uint256"
        }
      ],
      "name": "Deposit",
      "type": "event"
    },
    {
      "anonymous": false,
      "inputs": [
        {
          "indexed": true,
          "internalType": "address",
          "name": "user",
          "type": "address"
        },
        {
          "indexed": true,
          "internalType": "uint8",
          "name": "pid",
          "type": "uint8"
        },
        {
          "indexed": false,
          "internalType": "uint256",
          "name": "amount",
          "type": "uint256"
        }
      ],
      "name": "EmergencyWithdraw",
      "type": "event"
    },
    {
      "anonymous": false,
      "inputs": [
        {
          "indexed": true,
          "internalType": "address",
          "name": "previousOwner",
          "type": "address"
        },
        {
          "indexed": true,
          "internalType": "address",
          "name": "newOwner",
          "type": "address"
        }
      ],
      "name": "OwnershipTransferred",
      "type": "event"
    },
    {
      "anonymous": false,
      "inputs": [
        {
          "indexed": true,
          "internalType": "address",
          "name": "user",
          "type": "address"
        },
        {
          "indexed": true,
          "internalType": "address",
          "name": "newAddress",
          "type": "address"
        }
      ],
      "name": "SetDevAddress",
      "type": "event"
    },
    {
      "anonymous": false,
      "inputs": [
        {
          "indexed": true,
          "internalType": "address",
          "name": "user",
          "type": "address"
        },
        {
          "indexed": true,
          "internalType": "address",
          "name": "newAddress",
          "type": "address"
        }
      ],
      "name": "SetRewardAddress",
      "type": "event"
    },
    {
      "anonymous": false,
      "inputs": [
        {
          "indexed": true,
          "internalType": "address",
          "name": "user",
          "type": "address"
        },
        {
          "indexed": false,
          "internalType": "uint256",
          "name": "lotlPerBlock",
          "type": "uint256"
        }
      ],
      "name": "UpdateMintingRate",
      "type": "event"
    },
    {
      "anonymous": false,
      "inputs": [
        {
          "indexed": true,
          "internalType": "address",
          "name": "user",
          "type": "address"
        },
        {
          "indexed": true,
          "internalType": "uint8",
          "name": "pid",
          "type": "uint8"
        },
        {
          "indexed": false,
          "internalType": "uint256",
          "name": "amount",
          "type": "uint256"
        }
      ],
      "name": "Withdraw",
      "type": "event"
    },
    {
      "anonymous": false,
      "inputs": [
        {
          "indexed": true,
          "internalType": "address",
          "name": "user",
          "type": "address"
        },
        {
          "indexed": false,
          "internalType": "uint256",
          "name": "amountLotl",
          "type": "uint256"
        },
        {
          "indexed": false,
          "internalType": "uint256",
          "name": "amountBUSD",
          "type": "uint256"
        }
      ],
      "name": "WithdrawReward",
      "type": "event"
    },
    {
      "inputs": [],
      "name": "devaddr",
      "outputs": [
        {
          "internalType": "address",
          "name": "",
          "type": "address"
        }
      ],
      "stateMutability": "view",
      "type": "function",
      "constant": true
    },
    {
      "inputs": [],
      "name": "lotl",
      "outputs": [
        {
          "internalType": "contract LotlToken",
          "name": "",
          "type": "address"
        }
      ],
      "stateMutability": "view",
      "type": "function",
      "constant": true
    },
    {
      "inputs": [],
      "name": "lotlPerBlock",
      "outputs": [
        {
          "internalType": "uint256",
          "name": "",
          "type": "uint256"
        }
      ],
      "stateMutability": "view",
      "type": "function",
      "constant": true
    },
    {
      "inputs": [],
      "name": "owner",
      "outputs": [
        {
          "internalType": "address",
          "name": "",
          "type": "address"
        }
      ],
      "stateMutability": "view",
      "type": "function",
      "constant": true
    },
    {
      "inputs": [
        {
          "internalType": "contract IERC20",
          "name": "",
          "type": "address"
        }
      ],
      "name": "poolExistence",
      "outputs": [
        {
          "internalType": "bool",
          "name": "",
          "type": "bool"
        }
      ],
      "stateMutability": "view",
      "type": "function",
      "constant": true
    },
    {
      "inputs": [
        {
          "internalType": "uint256",
          "name": "",
          "type": "uint256"
        }
      ],
      "name": "poolInfo",
      "outputs": [
        {
          "internalType": "contract IERC20",
          "name": "lpToken",
          "type": "address"
        },
        {
          "internalType": "uint8",
          "name": "allocPoint",
          "type": "uint8"
        },
        {
          "internalType": "uint256",
          "name": "lastRewardBlock",
          "type": "uint256"
        },
        {
          "internalType": "uint256",
          "name": "accLotlPerShare",
          "type": "uint256"
        },
        {
          "internalType": "uint16",
          "name": "depositFeeBP",
          "type": "uint16"
        },
        {
          "internalType": "uint32",
          "name": "totalTimeAlloc",
          "type": "uint32"
        }
      ],
      "stateMutability": "view",
      "type": "function",
      "constant": true
    },
    {
      "inputs": [],
      "name": "renounceOwnership",
      "outputs": [],
      "stateMutability": "nonpayable",
      "type": "function"
    },
    {
      "inputs": [],
      "name": "rewardInfo",
      "outputs": [
        {
          "internalType": "uint32",
          "name": "totalTimeAlloc",
          "type": "uint32"
        },
        {
          "internalType": "uint256",
          "name": "amountBUSD",
          "type": "uint256"
        },
        {
          "internalType": "uint256",
          "name": "amountLOTL",
          "type": "uint256"
        },
        {
          "internalType": "uint256",
          "name": "remainingLOTL",
          "type": "uint256"
        }
      ],
      "stateMutability": "view",
      "type": "function",
      "constant": true
    },
    {
      "inputs": [],
      "name": "rewardPool",
      "outputs": [
        {
          "internalType": "contract IRewardPool",
          "name": "",
          "type": "address"
        }
      ],
      "stateMutability": "view",
      "type": "function",
      "constant": true
    },
    {
      "inputs": [],
      "name": "totalAllocPoint",
      "outputs": [
        {
          "internalType": "uint32",
          "name": "",
          "type": "uint32"
        }
      ],
      "stateMutability": "view",
      "type": "function",
      "constant": true
    },
    {
      "inputs": [
        {
          "internalType": "address",
          "name": "newOwner",
          "type": "address"
        }
      ],
      "name": "transferOwnership",
      "outputs": [],
      "stateMutability": "nonpayable",
      "type": "function"
    },
    {
      "inputs": [
        {
          "internalType": "uint8",
          "name": "",
          "type": "uint8"
        },
        {
          "internalType": "address",
          "name": "",
          "type": "address"
        }
      ],
      "name": "userInfo",
      "outputs": [
        {
          "internalType": "uint256",
          "name": "amount",
          "type": "uint256"
        },
        {
          "internalType": "uint256",
          "name": "rewardDebt",
          "type": "uint256"
        },
        {
          "internalType": "bool",
          "name": "hasStaked",
          "type": "bool"
        },
        {
          "internalType": "uint256",
          "name": "stakedSince",
          "type": "uint256"
        },
        {
          "internalType": "uint256",
          "name": "rewardPoolShare",
          "type": "uint256"
        }
      ],
      "stateMutability": "view",
      "type": "function",
      "constant": true
    },
    {
      "inputs": [],
      "name": "poolLength",
      "outputs": [
        {
          "internalType": "uint8",
          "name": "",
          "type": "uint8"
        }
      ],
      "stateMutability": "view",
      "type": "function",
      "constant": true
    },
    {
      "inputs": [
        {
          "internalType": "uint8",
          "name": "_allocPoint",
          "type": "uint8"
        },
        {
          "internalType": "contract IERC20",
          "name": "_lpToken",
          "type": "address"
        },
        {
          "internalType": "contract IERC20",
          "name": "_tokenA",
          "type": "address"
        },
        {
          "internalType": "contract IERC20",
          "name": "_tokenB",
          "type": "address"
        },
        {
          "internalType": "uint16",
          "name": "_depositFeeBP",
          "type": "uint16"
        },
        {
          "internalType": "bool",
          "name": "_withUpdate",
          "type": "bool"
        },
        {
          "internalType": "bool",
          "name": "_isLPPool",
          "type": "bool"
        }
      ],
      "name": "add",
      "outputs": [],
      "stateMutability": "nonpayable",
      "type": "function"
    },
    {
      "inputs": [
        {
          "internalType": "uint8",
          "name": "_pid",
          "type": "uint8"
        },
        {
          "internalType": "address",
          "name": "_user",
          "type": "address"
        }
      ],
      "name": "pendingLotl",
      "outputs": [
        {
          "internalType": "uint256",
          "name": "",
          "type": "uint256"
        }
      ],
      "stateMutability": "view",
      "type": "function",
      "constant": true
    },
    {
      "inputs": [
        {
          "internalType": "address",
          "name": "_user",
          "type": "address"
        }
      ],
      "name": "pendingRewards",
      "outputs": [
        {
          "internalType": "uint256",
          "name": "_lotl",
          "type": "uint256"
        },
        {
          "internalType": "uint256",
          "name": "_busd",
          "type": "uint256"
        }
      ],
      "stateMutability": "view",
      "type": "function",
      "constant": true
    },
    {
      "inputs": [],
      "name": "massUpdatePools",
      "outputs": [],
      "stateMutability": "nonpayable",
      "type": "function"
    },
    {
      "inputs": [
        {
          "internalType": "uint8",
          "name": "_pid",
          "type": "uint8"
        }
      ],
      "name": "updatePool",
      "outputs": [],
      "stateMutability": "nonpayable",
      "type": "function"
    },
    {
      "inputs": [
        {
          "internalType": "uint8",
          "name": "_pid",
          "type": "uint8"
        },
        {
          "internalType": "uint256",
          "name": "_amount",
          "type": "uint256"
        }
      ],
      "name": "deposit",
      "outputs": [],
      "stateMutability": "nonpayable",
      "type": "function"
    },
    {
      "inputs": [
        {
          "internalType": "uint8",
          "name": "_pid",
          "type": "uint8"
        },
        {
          "internalType": "uint256",
          "name": "_amount",
          "type": "uint256"
        }
      ],
      "name": "withdraw",
      "outputs": [],
      "stateMutability": "nonpayable",
      "type": "function"
    },
    {
      "inputs": [],
      "name": "withdrawReward",
      "outputs": [],
      "stateMutability": "nonpayable",
      "type": "function"
    },
    {
      "inputs": [
        {
          "internalType": "uint8",
          "name": "_pid",
          "type": "uint8"
        }
      ],
      "name": "emergencyWithdraw",
      "outputs": [],
      "stateMutability": "nonpayable",
      "type": "function"
    },
    {
      "inputs": [
        {
          "internalType": "address",
          "name": "_devaddr",
          "type": "address"
        }
      ],
      "name": "setDevAddress",
      "outputs": [],
      "stateMutability": "nonpayable",
      "type": "function"
    },
    {
      "inputs": [
        {
          "internalType": "address",
          "name": "_rewardAddress",
          "type": "address"
        }
      ],
      "name": "setRewardAddress",
      "outputs": [],
      "stateMutability": "nonpayable",
      "type": "function"
    },
    {
      "inputs": [],
      "name": "updateMintingRate",
      "outputs": [],
      "stateMutability": "nonpayable",
      "type": "function"
    },
    {
      "inputs": [],
      "name": "startMinting",
      "outputs": [],
      "stateMutability": "nonpayable",
      "type": "function"
    },
    {
      "inputs": [],
      "name": "calculateRewardPool",
      "outputs": [],
      "stateMutability": "nonpayable",
      "type": "function"
    },
    {
      "inputs": [
        {
          "internalType": "uint8",
          "name": "_pid",
          "type": "uint8"
        },
        {
          "internalType": "address",
          "name": "_user",
          "type": "address"
        }
      ],
      "name": "currentHoldingFactor",
      "outputs": [
        {
          "internalType": "uint256",
          "name": "holdFactor",
          "type": "uint256"
        }
      ],
      "stateMutability": "view",
      "type": "function",
      "constant": true
    }
  ],
  "bytecode": "0x60806040526000600e60006101000a81548163ffffffff021916908363ffffffff1602179055503480156200003357600080fd5b5060405162004b7c38038062004b7c8339818101604052810190620000599190620001f9565b60006200006b620001da60201b60201c565b9050806000806101000a81548173ffffffffffffffffffffffffffffffffffffffff021916908373ffffffffffffffffffffffffffffffffffffffff1602179055508073ffffffffffffffffffffffffffffffffffffffff16600073ffffffffffffffffffffffffffffffffffffffff167f8be0079c531659141344cd1fd0a4f28419497f9722a3daafe3b4186f6b6457e060405160405180910390a3506001808190555080600860006101000a81548173ffffffffffffffffffffffffffffffffffffffff021916908373ffffffffffffffffffffffffffffffffffffffff16021790555033600960006101000a81548173ffffffffffffffffffffffffffffffffffffffff021916908373ffffffffffffffffffffffffffffffffffffffff16021790555033600a60006101000a81548173ffffffffffffffffffffffffffffffffffffffff021916908373ffffffffffffffffffffffffffffffffffffffff1602179055505062000287565b600033905090565b600081519050620001f3816200026d565b92915050565b6000602082840312156200020c57600080fd5b60006200021c84828501620001e2565b91505092915050565b600062000232826200024d565b9050919050565b6000620002468262000225565b9050919050565b600073ffffffffffffffffffffffffffffffffffffffff82169050919050565b620002788162000239565b81146200028457600080fd5b50565b6148e580620002976000396000f3fe608060405234801561001057600080fd5b50600436106101c45760003560e01c8063715018a6116100f9578063c885bc5811610097578063d0d41fe111610071578063d0d41fe114610490578063d49e77cd146104ac578063f2fde38b146104ca578063f4d4c9d7146104e6576101c4565b8063c885bc5814610435578063c9f670721461043f578063cbd258b514610460576101c4565b80639a65ea26116100d35780639a65ea26146103c1578063b478b543146103cb578063b49b0758146103fb578063b6f76da014610405576101c4565b8063715018a61461036557806376fa17d21461036f5780638da5cb5b146103a3576101c4565b806331d7a262116101665780635e00e679116101405780635e00e67914610305578063630b5ba11461032157806366666aa91461032b578063673dbc3b14610349576101c4565b806331d7a2621461029a5780633b2baf42146102cb5780633f489914146102e9576101c4565b8063155622a4116101a2578063155622a41461023857806317caf6f1146102545780632977ed34146102725780632fd2c78914610290576101c4565b8063081e3eda146101c957806308fa95d4146101e75780631526fe2714610203575b600080fd5b6101d1610502565b6040516101de9190614434565b60405180910390f35b61020160048036038101906101fc919061393e565b61050f565b005b61021d600480360381019061021891906138ec565b6108c5565b60405161022f969594939291906140c4565b60405180910390f35b610252600480360381019061024d919061393e565b61095c565b005b61025c610b2a565b60405161026991906143d4565b60405180910390f35b61027a610b40565b6040516102879190614140565b60405180910390f35b610298610b66565b005b6102b460048036038101906102af9190613871565b610c51565b6040516102c2929190614358565b60405180910390f35b6102d3610db9565b6040516102e0919061433d565b60405180910390f35b61030360048036038101906102fe9190613a41565b610dbf565b005b61031f600480360381019061031a9190613871565b611080565b005b6103296111ae565b005b6103336111e7565b6040516103409190614125565b60405180910390f35b610363600480360381019061035e91906139a3565b61120d565b005b61036d611713565b005b61038960048036038101906103849190613967565b61184d565b60405161039a959493929190614381565b60405180910390f35b6103ab61189d565b6040516103b89190613fe9565b60405180910390f35b6103c96118c6565b005b6103e560048036038101906103e09190613967565b611967565b6040516103f2919061433d565b60405180910390f35b610403611bb9565b005b61041f600480360381019061041a9190613967565b6122be565b60405161042c919061433d565b60405180910390f35b61043d61234a565b005b610447612566565b60405161045794939291906143ef565b60405180910390f35b61047a600480360381019061047591906138c3565b612594565b6040516104879190614064565b60405180910390f35b6104aa60048036038101906104a59190613871565b6125b4565b005b6104b46126e2565b6040516104c19190613fe9565b60405180910390f35b6104e460048036038101906104df9190613871565b612708565b005b61050060048036038101906104fb9190613a41565b6128b1565b005b6000600c80549050905090565b6000600c8260ff168154811061054e577f4e487b7100000000000000000000000000000000000000000000000000000000600052603260045260246000fd5b906000526020600020906005020190508060010154431161056f57506108c2565b60008160000160009054906101000a900473ffffffffffffffffffffffffffffffffffffffff1673ffffffffffffffffffffffffffffffffffffffff166370a08231306040518263ffffffff1660e01b81526004016105ce9190613fe9565b60206040518083038186803b1580156105e657600080fd5b505afa1580156105fa573d6000803e3d6000fd5b505050506040513d601f19601f8201168201806040525081019061061e9190613915565b90506000811480610643575060008260000160149054906101000a900460ff1660ff16145b156106585743826001018190555050506108c2565b6000600b54141561066a5750506108c2565b6000600e60009054906101000a900463ffffffff1663ffffffff168360000160149054906101000a900460ff1660ff16600b548560010154436106ad9190614607565b6106b79190614579565b6106c19190614579565b6106cb9190614548565b9050600860009054906101000a900473ffffffffffffffffffffffffffffffffffffffff1673ffffffffffffffffffffffffffffffffffffffff166340c10f19600960009054906101000a900473ffffffffffffffffffffffffffffffffffffffff16600a8461073b9190614548565b6040518363ffffffff1660e01b815260040161075892919061403b565b600060405180830381600087803b15801561077257600080fd5b505af1158015610786573d6000803e3d6000fd5b505050506003600a826107999190614548565b6107a39190614579565b6002546107b09190614481565b600281905550600860009054906101000a900473ffffffffffffffffffffffffffffffffffffffff1673ffffffffffffffffffffffffffffffffffffffff166340c10f1930600a846108029190614548565b8461080d9190614607565b6040518363ffffffff1660e01b815260040161082a92919061403b565b600060405180830381600087803b15801561084457600080fd5b505af1158015610858573d6000803e3d6000fd5b505050506004600a8261086b9190614548565b6108759190614579565b816108809190614607565b90508164e8d4a51000826108949190614579565b61089e9190614548565b83600201546108ad9190614481565b83600201819055504383600101819055505050505b50565b600c81815481106108d557600080fd5b90600052602060002090600502016000915090508060000160009054906101000a900473ffffffffffffffffffffffffffffffffffffffff16908060000160149054906101000a900460ff16908060010154908060020154908060030160009054906101000a900461ffff16908060030160029054906101000a900463ffffffff16905086565b600260015414156109a2576040517f08c379a00000000000000000000000000000000000000000000000000000000081526004016109999061431d565b60405180910390fd5b60026001819055506000600c8260ff16815481106109e9577f4e487b7100000000000000000000000000000000000000000000000000000000600052603260045260246000fd5b906000526020600020906005020190506000600d6000600185610a0c9190614511565b60ff1660ff16815260200190815260200160002060003373ffffffffffffffffffffffffffffffffffffffff1673ffffffffffffffffffffffffffffffffffffffff16815260200190815260200160002090506000816000015490506000826000018190555060008260010181905550610acb33828560000160009054906101000a900473ffffffffffffffffffffffffffffffffffffffff1673ffffffffffffffffffffffffffffffffffffffff16612e909092919063ffffffff16565b8360ff163373ffffffffffffffffffffffffffffffffffffffff167f8156d33b814bc2a6b8de33ce1db77f5616fef8c6d854a678e52db9a647e9f68383604051610b15919061433d565b60405180910390a35050506001808190555050565b600e60009054906101000a900463ffffffff1681565b600860009054906101000a900473ffffffffffffffffffffffffffffffffffffffff1681565b610b6e612f16565b73ffffffffffffffffffffffffffffffffffffffff16610b8c61189d565b73ffffffffffffffffffffffffffffffffffffffff1614610be2576040517f08c379a0000000000000000000000000000000000000000000000000000000008152600401610bd99061427d565b60405180910390fd5b610bea6111ae565b6002600b54610bf99190614548565b600b819055503373ffffffffffffffffffffffffffffffffffffffff167f87bbbbdb4fc944595a16c450774ee3e9f972ccb8935446f518df232d0a07c961600b54604051610c47919061433d565b60405180910390a2565b6000806000600d60008060ff16815260200190815260200160002060008573ffffffffffffffffffffffffffffffffffffffff1673ffffffffffffffffffffffffffffffffffffffff16815260200190815260200160002090506000816004015411610cf2576040517f08c379a0000000000000000000000000000000000000000000000000000000008152600401610ce9906142bd565b60405180910390fd5b600081600401541115610dab57600064e8d4a51000600360000160009054906101000a900463ffffffff1663ffffffff168360040154600360010154610d389190614579565b610d429190614548565b610d4c9190614548565b9050600064e8d4a51000600360000160009054906101000a900463ffffffff1663ffffffff168460040154600360020154610d879190614579565b610d919190614548565b610d9b9190614548565b9050808294509450505050610db4565b60008092509250505b915091565b600b5481565b60026001541415610e05576040517f08c379a0000000000000000000000000000000000000000000000000000000008152600401610dfc9061431d565b60405180910390fd5b60026001819055506000600c8360ff1681548110610e4c577f4e487b7100000000000000000000000000000000000000000000000000000000600052603260045260246000fd5b906000526020600020906005020190506000600d6000600186610e6f9190614511565b60ff1660ff16815260200190815260200160002060003373ffffffffffffffffffffffffffffffffffffffff1673ffffffffffffffffffffffffffffffffffffffff16815260200190815260200160002090508281600001541015610f09576040517f08c379a0000000000000000000000000000000000000000000000000000000008152600401610f00906142bd565b60405180910390fd5b610f128461050f565b6000816001015464e8d4a5100084600201548460000154610f339190614579565b610f3d9190614548565b610f479190614607565b90506000811115610f5d57610f5c3382612f1e565b5b6000841115610ff457838260000154610f769190614607565b8260000181905550600082600001541115610f9957438260030181905550610fa4565b600082600301819055505b610ff333858560000160009054906101000a900473ffffffffffffffffffffffffffffffffffffffff1673ffffffffffffffffffffffffffffffffffffffff16612e909092919063ffffffff16565b5b64e8d4a510008360020154836000015461100e9190614579565b6110189190614548565b82600101819055508460ff163373ffffffffffffffffffffffffffffffffffffffff167fe3054ec6f352b09a86839beeeceb27ed4684f9164eb61f4a5d6d159ee8789d748660405161106a919061433d565b60405180910390a3505050600180819055505050565b600a60009054906101000a900473ffffffffffffffffffffffffffffffffffffffff1673ffffffffffffffffffffffffffffffffffffffff163373ffffffffffffffffffffffffffffffffffffffff1614611110576040517f08c379a0000000000000000000000000000000000000000000000000000000008152600401611107906141bd565b60405180910390fd5b80600a60006101000a81548173ffffffffffffffffffffffffffffffffffffffff021916908373ffffffffffffffffffffffffffffffffffffffff1602179055508073ffffffffffffffffffffffffffffffffffffffff163373ffffffffffffffffffffffffffffffffffffffff167fbf9506a1860786c02fd6ce0d9a8ef5b227bfe4f56e2115442215d7af2dbf798a60405160405180910390a350565b6000600c80549050905060005b8160ff168160ff1610156111e3576111d28161050f565b806111dc9061478c565b90506111bb565b5050565b600a60009054906101000a900473ffffffffffffffffffffffffffffffffffffffff1681565b611215612f16565b73ffffffffffffffffffffffffffffffffffffffff1661123361189d565b73ffffffffffffffffffffffffffffffffffffffff1614611289576040517f08c379a00000000000000000000000000000000000000000000000000000000081526004016112809061427d565b60405180910390fd5b8560001515600f60008373ffffffffffffffffffffffffffffffffffffffff1673ffffffffffffffffffffffffffffffffffffffff16815260200190815260200160002060009054906101000a900460ff1615151461131d576040517f08c379a0000000000000000000000000000000000000000000000000000000008152600401611314906142dd565b60405180910390fd5b6127108461ffff161115611366576040517f08c379a000000000000000000000000000000000000000000000000000000000815260040161135d9061417d565b60405180910390fd5b60648860ff1611156113ad576040517f08c379a00000000000000000000000000000000000000000000000000000000081526004016113a49061423d565b60405180910390fd5b82156113bc576113bb6111ae565b5b811561145a57600a60009054906101000a900473ffffffffffffffffffffffffffffffffffffffff1673ffffffffffffffffffffffffffffffffffffffff1663a16b583e888888866040518563ffffffff1660e01b8152600401611423949392919061407f565b600060405180830381600087803b15801561143d57600080fd5b505af1158015611451573d6000803e3d6000fd5b505050506114ee565b600a60009054906101000a900473ffffffffffffffffffffffffffffffffffffffff1673ffffffffffffffffffffffffffffffffffffffff1663a16b583e88898a866040518563ffffffff1660e01b81526004016114bb949392919061407f565b600060405180830381600087803b1580156114d557600080fd5b505af11580156114e9573d6000803e3d6000fd5b505050505b8760ff16600e60009054906101000a900463ffffffff1661150f91906144d7565b600e60006101000a81548163ffffffff021916908363ffffffff1602179055506001600f60008973ffffffffffffffffffffffffffffffffffffffff1673ffffffffffffffffffffffffffffffffffffffff16815260200190815260200160002060006101000a81548160ff02191690831515021790555061158f6136c2565b87816000019073ffffffffffffffffffffffffffffffffffffffff16908173ffffffffffffffffffffffffffffffffffffffff168152505088816020019060ff16908160ff16815250504381604001818152505084816080019061ffff16908161ffff1681525050600c81908060018154018082558091505060019003906000526020600020906005020160009091909190915060008201518160000160006101000a81548173ffffffffffffffffffffffffffffffffffffffff021916908373ffffffffffffffffffffffffffffffffffffffff16021790555060208201518160000160146101000a81548160ff021916908360ff160217905550604082015181600101556060820151816002015560808201518160030160006101000a81548161ffff021916908361ffff16021790555060a08201518160030160026101000a81548163ffffffff021916908363ffffffff16021790555060c0820151816004019080519060200190611705929190613722565b505050505050505050505050565b61171b612f16565b73ffffffffffffffffffffffffffffffffffffffff1661173961189d565b73ffffffffffffffffffffffffffffffffffffffff161461178f576040517f08c379a00000000000000000000000000000000000000000000000000000000081526004016117869061427d565b60405180910390fd5b600073ffffffffffffffffffffffffffffffffffffffff1660008054906101000a900473ffffffffffffffffffffffffffffffffffffffff1673ffffffffffffffffffffffffffffffffffffffff167f8be0079c531659141344cd1fd0a4f28419497f9722a3daafe3b4186f6b6457e060405160405180910390a360008060006101000a81548173ffffffffffffffffffffffffffffffffffffffff021916908373ffffffffffffffffffffffffffffffffffffffff160217905550565b600d602052816000526040600020602052806000526040600020600091509150508060000154908060010154908060020160009054906101000a900460ff16908060030154908060040154905085565b60008060009054906101000a900473ffffffffffffffffffffffffffffffffffffffff16905090565b6118ce612f16565b73ffffffffffffffffffffffffffffffffffffffff166118ec61189d565b73ffffffffffffffffffffffffffffffffffffffff1614611942576040517f08c379a00000000000000000000000000000000000000000000000000000000081526004016119399061427d565b60405180910390fd5b6000600b541415611965576119556111ae565b673782dace9d900000600b819055505b565b600080600c8460ff16815481106119a7577f4e487b7100000000000000000000000000000000000000000000000000000000600052603260045260246000fd5b906000526020600020906005020190506000600d60006001876119ca9190614511565b60ff1660ff16815260200190815260200160002060008573ffffffffffffffffffffffffffffffffffffffff1673ffffffffffffffffffffffffffffffffffffffff168152602001908152602001600020905060008260020154905060008360000160009054906101000a900473ffffffffffffffffffffffffffffffffffffffff1673ffffffffffffffffffffffffffffffffffffffff166370a08231306040518263ffffffff1660e01b8152600401611a859190613fe9565b60206040518083038186803b158015611a9d57600080fd5b505afa158015611ab1573d6000803e3d6000fd5b505050506040513d601f19601f82011682018060405250810190611ad59190613915565b9050836001015443118015611aeb575060008114155b15611b7e576000600e60009054906101000a900463ffffffff1663ffffffff168560000160149054906101000a900460ff1660ff16600b54876001015443611b339190614607565b611b3d9190614579565b611b479190614579565b611b519190614548565b90508164e8d4a5100082611b659190614579565b611b6f9190614548565b83611b7a9190614481565b9250505b826001015464e8d4a51000846000015484611b999190614579565b611ba39190614548565b611bad9190614607565b94505050505092915050565b6000600c80549050905060006003600401805490509050734260e200a356bd15ed210ff4da0d0e59bac1a38f73ffffffffffffffffffffffffffffffffffffffff166370a08231306040518263ffffffff1660e01b8152600401611c1d9190613fe9565b60206040518083038186803b158015611c3557600080fd5b505afa158015611c49573d6000803e3d6000fd5b505050506040513d601f19601f82011682018060405250810190611c6d9190613915565b6003600101819055506003800154600254611c889190614481565b600360020181905550600360020154600380018190555060006002819055506000600360000160006101000a81548163ffffffff021916908363ffffffff16021790555060005b8163ffffffff168163ffffffff161015611dc5576000600d60008060ff168152602001908152602001600020600060036004018463ffffffff1681548110611d40577f4e487b7100000000000000000000000000000000000000000000000000000000600052603260045260246000fd5b9060005260206000200160009054906101000a900473ffffffffffffffffffffffffffffffffffffffff1673ffffffffffffffffffffffffffffffffffffffff1673ffffffffffffffffffffffffffffffffffffffff168152602001908152602001600020905060008160040181905550508080611dbd9061475f565b915050611ccf565b5060005b8260ff168160ff1610156122b9576000600c8260ff1681548110611e16577f4e487b7100000000000000000000000000000000000000000000000000000000600052603260045260246000fd5b9060005260206000209060050201905060008160000160009054906101000a900473ffffffffffffffffffffffffffffffffffffffff1673ffffffffffffffffffffffffffffffffffffffff166370a08231306040518263ffffffff1660e01b8152600401611e859190613fe9565b60206040518083038186803b158015611e9d57600080fd5b505afa158015611eb1573d6000803e3d6000fd5b505050506040513d601f19601f82011682018060405250810190611ed59190613915565b90506000826004018054905090506000600c8560ff1681548110611f22577f4e487b7100000000000000000000000000000000000000000000000000000000600052603260045260246000fd5b906000526020600020906005020160030160026101000a81548163ffffffff021916908363ffffffff16021790555060005b8163ffffffff168163ffffffff16101561224a576000600d6000600188611f7b9190614511565b60ff1660ff1681526020019081526020016000206000866004018463ffffffff1681548110611fd3577f4e487b7100000000000000000000000000000000000000000000000000000000600052603260045260246000fd5b9060005260206000200160009054906101000a900473ffffffffffffffffffffffffffffffffffffffff1673ffffffffffffffffffffffffffffffffffffffff1673ffffffffffffffffffffffffffffffffffffffff1681526020019081526020016000209050600081600301541115612236576000600d60008060ff1681526020019081526020016000206000600c8960ff168154811061209e577f4e487b7100000000000000000000000000000000000000000000000000000000600052603260045260246000fd5b90600052602060002090600502016004018563ffffffff16815481106120ed577f4e487b7100000000000000000000000000000000000000000000000000000000600052603260045260246000fd5b9060005260206000200160009054906101000a900473ffffffffffffffffffffffffffffffffffffffff1673ffffffffffffffffffffffffffffffffffffffff1673ffffffffffffffffffffffffffffffffffffffff168152602001908152602001600020905060006121638360030154613185565b90508061ffff168760030160029054906101000a900463ffffffff1661218991906144d7565b8760030160026101000a81548163ffffffff021916908363ffffffff1602179055508061ffff16868860000160149054906101000a900460ff1660ff16600e60009054906101000a900463ffffffff1663ffffffff1664e8d4a5100087600001546121f49190614579565b6121fe9190614548565b6122089190614579565b6122129190614548565b61221c9190614579565b826004015461222b9190614481565b826004018190555050505b5080806122429061475f565b915050611f54565b508260030160029054906101000a900463ffffffff16600360000160009054906101000a900463ffffffff1661228091906144d7565b600360000160006101000a81548163ffffffff021916908363ffffffff16021790555050505080806122b19061478c565b915050611dc9565b505050565b600080600d60008560ff1660ff16815260200190815260200160002060008473ffffffffffffffffffffffffffffffffffffffff1673ffffffffffffffffffffffffffffffffffffffff168152602001908152602001600020905060008160030154111561233e578060030154436123369190614607565b915050612344565b60009150505b92915050565b60026001541415612390576040517f08c379a00000000000000000000000000000000000000000000000000000000081526004016123879061431d565b60405180910390fd5b60026001819055506000600d60008060ff16815260200190815260200160002060003373ffffffffffffffffffffffffffffffffffffffff1673ffffffffffffffffffffffffffffffffffffffff16815260200190815260200160002090506000816004015411612436576040517f08c379a000000000000000000000000000000000000000000000000000000000815260040161242d906142bd565b60405180910390fd5b600064e8d4a51000600360000160009054906101000a900463ffffffff1663ffffffff16836004015460036001015461246f9190614579565b6124799190614548565b6124839190614548565b9050600064e8d4a51000600360000160009054906101000a900463ffffffff1663ffffffff1684600401546003600201546124be9190614579565b6124c89190614548565b6124d29190614548565b90508060038001546124e49190614607565b60038001819055506124f63382612f1e565b612500338361318f565b600083600401819055503373ffffffffffffffffffffffffffffffffffffffff167f48f1e4b8fb0469595617480e6784e40ab6b8c49209761b8e09305bf7b73e53de8284604051612552929190614358565b60405180910390a250505060018081905550565b60038060000160009054906101000a900463ffffffff16908060010154908060020154908060030154905084565b600f6020528060005260406000206000915054906101000a900460ff1681565b600960009054906101000a900473ffffffffffffffffffffffffffffffffffffffff1673ffffffffffffffffffffffffffffffffffffffff163373ffffffffffffffffffffffffffffffffffffffff1614612644576040517f08c379a000000000000000000000000000000000000000000000000000000000815260040161263b9061425d565b60405180910390fd5b80600960006101000a81548173ffffffffffffffffffffffffffffffffffffffff021916908373ffffffffffffffffffffffffffffffffffffffff1602179055508073ffffffffffffffffffffffffffffffffffffffff163373ffffffffffffffffffffffffffffffffffffffff167f618c54559e94f1499a808aad71ee8729f8e74e8c48e979616328ce493a1a52e760405160405180910390a350565b600960009054906101000a900473ffffffffffffffffffffffffffffffffffffffff1681565b612710612f16565b73ffffffffffffffffffffffffffffffffffffffff1661272e61189d565b73ffffffffffffffffffffffffffffffffffffffff1614612784576040517f08c379a000000000000000000000000000000000000000000000000000000000815260040161277b9061427d565b60405180910390fd5b600073ffffffffffffffffffffffffffffffffffffffff168173ffffffffffffffffffffffffffffffffffffffff1614156127f4576040517f08c379a00000000000000000000000000000000000000000000000000000000081526004016127eb906141dd565b60405180910390fd5b8073ffffffffffffffffffffffffffffffffffffffff1660008054906101000a900473ffffffffffffffffffffffffffffffffffffffff1673ffffffffffffffffffffffffffffffffffffffff167f8be0079c531659141344cd1fd0a4f28419497f9722a3daafe3b4186f6b6457e060405160405180910390a3806000806101000a81548173ffffffffffffffffffffffffffffffffffffffff021916908373ffffffffffffffffffffffffffffffffffffffff16021790555050565b600260015414156128f7576040517f08c379a00000000000000000000000000000000000000000000000000000000081526004016128ee9061431d565b60405180910390fd5b60026001819055506000600c8360ff168154811061293e577f4e487b7100000000000000000000000000000000000000000000000000000000600052603260045260246000fd5b906000526020600020906005020190506000600d60006001866129619190614511565b60ff1660ff16815260200190815260200160002060003373ffffffffffffffffffffffffffffffffffffffff1673ffffffffffffffffffffffffffffffffffffffff16815260200190815260200160002090506000600d60008060ff16815260200190815260200160002060003373ffffffffffffffffffffffffffffffffffffffff1673ffffffffffffffffffffffffffffffffffffffff1681526020019081526020016000209050612a148561050f565b60008260030154148015612a285750600084115b15612a37574382600301819055505b600082600001541115612a91576000826001015464e8d4a5100085600201548560000154612a659190614579565b612a6f9190614548565b612a799190614607565b90506000811115612a8f57612a8e3382612f1e565b5b505b6000841115612e0457612aeb3330868660000160009054906101000a900473ffffffffffffffffffffffffffffffffffffffff1673ffffffffffffffffffffffffffffffffffffffff166133cc909392919063ffffffff16565b60006127108460030160009054906101000a900461ffff16612710612b1091906145d3565b61ffff1686612b1f9190614579565b612b299190614548565b9050600083600001541115612b8157808360000154612b489190614481565b81846003015443612b599190614607565b612b639190614579565b612b6d9190614548565b43612b789190614481565b83600301819055505b8260020160009054906101000a900460ff16612c1a5783600401339080600181540180825580915050600190039060005260206000200160009091909190916101000a81548173ffffffffffffffffffffffffffffffffffffffff021916908373ffffffffffffffffffffffffffffffffffffffff16021790555060018360020160006101000a81548160ff0219169083151502179055505b8160020160009054906101000a900460ff16612cb4576003600401339080600181540180825580915050600190039060005260206000200160009091909190916101000a81548173ffffffffffffffffffffffffffffffffffffffff021916908373ffffffffffffffffffffffffffffffffffffffff16021790555060018260020160006101000a81548160ff0219169083151502179055505b60008460030160009054906101000a900461ffff1661ffff161115612dea5760008186612ce19190614607565b9050612d60600960009054906101000a900473ffffffffffffffffffffffffffffffffffffffff16600a83612d169190614548565b8760000160009054906101000a900473ffffffffffffffffffffffffffffffffffffffff1673ffffffffffffffffffffffffffffffffffffffff16612e909092919063ffffffff16565b612de8600a60009054906101000a900473ffffffffffffffffffffffffffffffffffffffff16600a83612d939190614548565b83612d9e9190614607565b8760000160009054906101000a900473ffffffffffffffffffffffffffffffffffffffff1673ffffffffffffffffffffffffffffffffffffffff16612e909092919063ffffffff16565b505b808360000154612dfa9190614481565b8360000181905550505b64e8d4a5100083600201548360000154612e1e9190614579565b612e289190614548565b82600101819055508460ff163373ffffffffffffffffffffffffffffffffffffffff167fe6ea2883ec66613be5cdd4954e8c4919bdb7982e6e2d907011bc051bfcde7fe486604051612e7a919061433d565b60405180910390a3505050600180819055505050565b612f118363a9059cbb60e01b8484604051602401612eaf92919061403b565b604051602081830303815290604052907bffffffffffffffffffffffffffffffffffffffffffffffffffffffff19166020820180517bffffffffffffffffffffffffffffffffffffffffffffffffffffffff8381831617835250505050613455565b505050565b600033905090565b6000600860009054906101000a900473ffffffffffffffffffffffffffffffffffffffff1673ffffffffffffffffffffffffffffffffffffffff166370a08231306040518263ffffffff1660e01b8152600401612f7b9190613fe9565b60206040518083038186803b158015612f9357600080fd5b505afa158015612fa7573d6000803e3d6000fd5b505050506040513d601f19601f82011682018060405250810190612fcb9190613915565b905060008183111561308d57600860009054906101000a900473ffffffffffffffffffffffffffffffffffffffff1673ffffffffffffffffffffffffffffffffffffffff1663a9059cbb85846040518363ffffffff1660e01b815260040161303492919061403b565b602060405180830381600087803b15801561304e57600080fd5b505af1158015613062573d6000803e3d6000fd5b505050506040513d601f19601f82011682018060405250810190613086919061389a565b905061313f565b600860009054906101000a900473ffffffffffffffffffffffffffffffffffffffff1673ffffffffffffffffffffffffffffffffffffffff1663a9059cbb85856040518363ffffffff1660e01b81526004016130ea92919061403b565b602060405180830381600087803b15801561310457600080fd5b505af1158015613118573d6000803e3d6000fd5b505050506040513d601f19601f8201168201806040525081019061313c919061389a565b90505b8061317f576040517f08c379a00000000000000000000000000000000000000000000000000000000081526004016131769061419d565b60405180910390fd5b50505050565b6000819050919050565b6000734260e200a356bd15ed210ff4da0d0e59bac1a38f73ffffffffffffffffffffffffffffffffffffffff166370a08231306040518263ffffffff1660e01b81526004016131de9190613fe9565b60206040518083038186803b1580156131f657600080fd5b505afa15801561320a573d6000803e3d6000fd5b505050506040513d601f19601f8201168201806040525081019061322e9190613915565b90506000818311156132e257734260e200a356bd15ed210ff4da0d0e59bac1a38f73ffffffffffffffffffffffffffffffffffffffff1663a9059cbb85846040518363ffffffff1660e01b815260040161328992919061403b565b602060405180830381600087803b1580156132a357600080fd5b505af11580156132b7573d6000803e3d6000fd5b505050506040513d601f19601f820116820180604052508101906132db919061389a565b9050613386565b734260e200a356bd15ed210ff4da0d0e59bac1a38f73ffffffffffffffffffffffffffffffffffffffff1663a9059cbb85856040518363ffffffff1660e01b815260040161333192919061403b565b602060405180830381600087803b15801561334b57600080fd5b505af115801561335f573d6000803e3d6000fd5b505050506040513d601f19601f82011682018060405250810190613383919061389a565b90505b806133c6576040517f08c379a00000000000000000000000000000000000000000000000000000000081526004016133bd9061421d565b60405180910390fd5b50505050565b61344f846323b872dd60e01b8585856040516024016133ed93929190614004565b604051602081830303815290604052907bffffffffffffffffffffffffffffffffffffffffffffffffffffffff19166020820180517bffffffffffffffffffffffffffffffffffffffffffffffffffffffff8381831617835250505050613455565b50505050565b60006134b7826040518060400160405280602081526020017f5361666545524332303a206c6f772d6c6576656c2063616c6c206661696c65648152508573ffffffffffffffffffffffffffffffffffffffff1661351c9092919063ffffffff16565b905060008151111561351757808060200190518101906134d7919061389a565b613516576040517f08c379a000000000000000000000000000000000000000000000000000000000815260040161350d906142fd565b60405180910390fd5b5b505050565b606061352b8484600085613534565b90509392505050565b606082471015613579576040517f08c379a0000000000000000000000000000000000000000000000000000000008152600401613570906141fd565b60405180910390fd5b61358285613648565b6135c1576040517f08c379a00000000000000000000000000000000000000000000000000000000081526004016135b89061429d565b60405180910390fd5b6000808673ffffffffffffffffffffffffffffffffffffffff1685876040516135ea9190613fd2565b60006040518083038185875af1925050503d8060008114613627576040519150601f19603f3d011682016040523d82523d6000602084013e61362c565b606091505b509150915061363c82828661365b565b92505050949350505050565b600080823b905060008111915050919050565b6060831561366b578290506136bb565b60008351111561367e5782518084602001fd5b816040517f08c379a00000000000000000000000000000000000000000000000000000000081526004016136b2919061415b565b60405180910390fd5b9392505050565b6040518060e00160405280600073ffffffffffffffffffffffffffffffffffffffff168152602001600060ff1681526020016000815260200160008152602001600061ffff168152602001600063ffffffff168152602001606081525090565b82805482825590600052602060002090810192821561379b579160200282015b8281111561379a5782518260006101000a81548173ffffffffffffffffffffffffffffffffffffffff021916908373ffffffffffffffffffffffffffffffffffffffff16021790555091602001919060010190613742565b5b5090506137a891906137ac565b5090565b5b808211156137c55760008160009055506001016137ad565b5090565b6000813590506137d881614825565b92915050565b6000813590506137ed8161483c565b92915050565b6000815190506138028161483c565b92915050565b60008135905061381781614853565b92915050565b60008135905061382c8161486a565b92915050565b60008135905061384181614881565b92915050565b60008151905061385681614881565b92915050565b60008135905061386b81614898565b92915050565b60006020828403121561388357600080fd5b6000613891848285016137c9565b91505092915050565b6000602082840312156138ac57600080fd5b60006138ba848285016137f3565b91505092915050565b6000602082840312156138d557600080fd5b60006138e384828501613808565b91505092915050565b6000602082840312156138fe57600080fd5b600061390c84828501613832565b91505092915050565b60006020828403121561392757600080fd5b600061393584828501613847565b91505092915050565b60006020828403121561395057600080fd5b600061395e8482850161385c565b91505092915050565b6000806040838503121561397a57600080fd5b60006139888582860161385c565b9250506020613999858286016137c9565b9150509250929050565b600080600080600080600060e0888a0312156139be57600080fd5b60006139cc8a828b0161385c565b97505060206139dd8a828b01613808565b96505060406139ee8a828b01613808565b95505060606139ff8a828b01613808565b9450506080613a108a828b0161381d565b93505060a0613a218a828b016137de565b92505060c0613a328a828b016137de565b91505092959891949750929550565b60008060408385031215613a5457600080fd5b6000613a628582860161385c565b9250506020613a7385828601613832565b9150509250929050565b613a868161463b565b82525050565b613a958161464d565b82525050565b6000613aa68261444f565b613ab08185614465565b9350613ac081856020860161472c565b80840191505092915050565b613ad5816146c0565b82525050565b613ae4816146e4565b82525050565b613af381614708565b82525050565b6000613b048261445a565b613b0e8185614470565b9350613b1e81856020860161472c565b613b2781614814565b840191505092915050565b6000613b3f602583614470565b91507f6164643a20696e76616c6964206465706f73697420666565206261736973207060008301527f6f696e74730000000000000000000000000000000000000000000000000000006020830152604082019050919050565b6000613ba5602183614470565b91507f736166654c6f746c5472616e736665723a207472616e73666572206661696c6560008301527f64000000000000000000000000000000000000000000000000000000000000006020830152604082019050919050565b6000613c0b600d83614470565b91507f726577617264733a207768613f000000000000000000000000000000000000006000830152602082019050919050565b6000613c4b602683614470565b91507f4f776e61626c653a206e6577206f776e657220697320746865207a65726f206160008301527f64647265737300000000000000000000000000000000000000000000000000006020830152604082019050919050565b6000613cb1602683614470565b91507f416464726573733a20696e73756666696369656e742062616c616e636520666f60008301527f722063616c6c00000000000000000000000000000000000000000000000000006020830152604082019050919050565b6000613d17602183614470565b91507f73616665427573645472616e736665723a207472616e73666572206661696c6560008301527f64000000000000000000000000000000000000000000000000000000000000006020830152604082019050919050565b6000613d7d601e83614470565b91507f6164643a20696e76616c696420616c6c6f636174696f6e20706f696e747300006000830152602082019050919050565b6000613dbd600983614470565b91507f6465763a207775743f00000000000000000000000000000000000000000000006000830152602082019050919050565b6000613dfd602083614470565b91507f4f776e61626c653a2063616c6c6572206973206e6f7420746865206f776e65726000830152602082019050919050565b6000613e3d601d83614470565b91507f416464726573733a2063616c6c20746f206e6f6e2d636f6e74726163740000006000830152602082019050919050565b6000613e7d601283614470565b91507f77697468647261773a206e6f7420676f6f6400000000000000000000000000006000830152602082019050919050565b6000613ebd601983614470565b91507f6e6f6e4475706c6963617465643a206475706c696361746564000000000000006000830152602082019050919050565b6000613efd602a83614470565b91507f5361666545524332303a204552433230206f7065726174696f6e20646964206e60008301527f6f742073756363656564000000000000000000000000000000000000000000006020830152604082019050919050565b6000613f63601f83614470565b91507f5265656e7472616e637947756172643a207265656e7472616e742063616c6c006000830152602082019050919050565b613f9f8161466b565b82525050565b613fae81614699565b82525050565b613fbd816146a3565b82525050565b613fcc816146b3565b82525050565b6000613fde8284613a9b565b915081905092915050565b6000602082019050613ffe6000830184613a7d565b92915050565b60006060820190506140196000830186613a7d565b6140266020830185613a7d565b6140336040830184613fa5565b949350505050565b60006040820190506140506000830185613a7d565b61405d6020830184613fa5565b9392505050565b60006020820190506140796000830184613a8c565b92915050565b60006080820190506140946000830187613acc565b6140a16020830186613acc565b6140ae6040830185613acc565b6140bb6060830184613a8c565b95945050505050565b600060c0820190506140d96000830189613acc565b6140e66020830188613fc3565b6140f36040830187613fa5565b6141006060830186613fa5565b61410d6080830185613f96565b61411a60a0830184613fb4565b979650505050505050565b600060208201905061413a6000830184613adb565b92915050565b60006020820190506141556000830184613aea565b92915050565b600060208201905081810360008301526141758184613af9565b905092915050565b6000602082019050818103600083015261419681613b32565b9050919050565b600060208201905081810360008301526141b681613b98565b9050919050565b600060208201905081810360008301526141d681613bfe565b9050919050565b600060208201905081810360008301526141f681613c3e565b9050919050565b6000602082019050818103600083015261421681613ca4565b9050919050565b6000602082019050818103600083015261423681613d0a565b9050919050565b6000602082019050818103600083015261425681613d70565b9050919050565b6000602082019050818103600083015261427681613db0565b9050919050565b6000602082019050818103600083015261429681613df0565b9050919050565b600060208201905081810360008301526142b681613e30565b9050919050565b600060208201905081810360008301526142d681613e70565b9050919050565b600060208201905081810360008301526142f681613eb0565b9050919050565b6000602082019050818103600083015261431681613ef0565b9050919050565b6000602082019050818103600083015261433681613f56565b9050919050565b60006020820190506143526000830184613fa5565b92915050565b600060408201905061436d6000830185613fa5565b61437a6020830184613fa5565b9392505050565b600060a0820190506143966000830188613fa5565b6143a36020830187613fa5565b6143b06040830186613a8c565b6143bd6060830185613fa5565b6143ca6080830184613fa5565b9695505050505050565b60006020820190506143e96000830184613fb4565b92915050565b60006080820190506144046000830187613fb4565b6144116020830186613fa5565b61441e6040830185613fa5565b61442b6060830184613fa5565b95945050505050565b60006020820190506144496000830184613fc3565b92915050565b600081519050919050565b600081519050919050565b600081905092915050565b600082825260208201905092915050565b600061448c82614699565b915061449783614699565b9250827fffffffffffffffffffffffffffffffffffffffffffffffffffffffffffffffff038211156144cc576144cb6147b6565b5b828201905092915050565b60006144e2826146a3565b91506144ed836146a3565b92508263ffffffff03821115614506576145056147b6565b5b828201905092915050565b600061451c826146b3565b9150614527836146b3565b92508260ff0382111561453d5761453c6147b6565b5b828201905092915050565b600061455382614699565b915061455e83614699565b92508261456e5761456d6147e5565b5b828204905092915050565b600061458482614699565b915061458f83614699565b9250817fffffffffffffffffffffffffffffffffffffffffffffffffffffffffffffffff04831182151516156145c8576145c76147b6565b5b828202905092915050565b60006145de8261466b565b91506145e98361466b565b9250828210156145fc576145fb6147b6565b5b828203905092915050565b600061461282614699565b915061461d83614699565b9250828210156146305761462f6147b6565b5b828203905092915050565b600061464682614679565b9050919050565b60008115159050919050565b60006146648261463b565b9050919050565b600061ffff82169050919050565b600073ffffffffffffffffffffffffffffffffffffffff82169050919050565b6000819050919050565b600063ffffffff82169050919050565b600060ff82169050919050565b60006146cb826146d2565b9050919050565b60006146dd82614679565b9050919050565b60006146ef826146f6565b9050919050565b600061470182614679565b9050919050565b60006147138261471a565b9050919050565b600061472582614679565b9050919050565b60005b8381101561474a57808201518184015260208101905061472f565b83811115614759576000848401525b50505050565b600061476a826146a3565b915063ffffffff821415614781576147806147b6565b5b600182019050919050565b6000614797826146b3565b915060ff8214156147ab576147aa6147b6565b5b600182019050919050565b7f4e487b7100000000000000000000000000000000000000000000000000000000600052601160045260246000fd5b7f4e487b7100000000000000000000000000000000000000000000000000000000600052601260045260246000fd5b6000601f19601f8301169050919050565b61482e8161463b565b811461483957600080fd5b50565b6148458161464d565b811461485057600080fd5b50565b61485c81614659565b811461486757600080fd5b50565b6148738161466b565b811461487e57600080fd5b50565b61488a81614699565b811461489557600080fd5b50565b6148a1816146b3565b81146148ac57600080fd5b5056fea2646970667358221220c40deb4488c21e0c002dbe6f62861711103095dc17c6ecceb0b1634c370e4c2164736f6c63430008000033",
  "immutableReferences": {},
  "source": "// SPDX-License-Identifier: MIT\r\n\r\npragma solidity ^0.8.0;\r\n\r\nimport \"@openzeppelin/contracts/access/Ownable.sol\";\r\nimport \"@openzeppelin/contracts/security/ReentrancyGuard.sol\";\r\nimport \"@openzeppelin/contracts/token/ERC20/utils/SafeERC20.sol\";\r\nimport \"@openzeppelin/contracts/token/ERC20/IERC20.sol\";\r\n\r\nimport \"./libs/Constants.sol\";\r\nimport \"./libs/IMasterChef.sol\";\r\nimport \"./libs/IRewardPool.sol\";\r\nimport \"./LotlToken.sol\";\r\n\r\n//CHANGE FOR BSC\r\n//import \"./libs/IBEP20.sol\";\r\n//import \"./libs/SafeBEP20.sol\";\r\n//import \"./libs/IRewardPool.sol\";\r\n\r\n\r\n\r\n// Copied and modified from GooseDefi code:\r\n// https://github.com/goosedefi/goose-contracts/blob/master/contracts/MasterChefV2.sol\r\n//\r\n// MasterChef is the master of Lotl. He can make Lotl and he is a fair guy.\r\n//\r\n// Note that it's ownable and the owner wields tremendous power. The ownership\r\n// will be transferred to a govenance smart contract once LOTL is sufficiently\r\n// distributed and the community can show to govern itself.\r\n//\r\n// Have fun reading it. Hopefully it's bug-free. Satan bless.\r\n\r\ncontract MasterChef is Ownable, ReentrancyGuard, IMasterChef, Constants {\r\n    //using SafeBEP20 for IBEP20;\r\n    //CHANGE FOR BSC\r\n    using SafeERC20 for IERC20;\r\n\r\n    // Info of each user.\r\n    struct UserInfo {\r\n        uint256 amount;                 // How many LP tokens the user has provided.\r\n        uint256 rewardDebt;             // Reward debt. See explanation below.\r\n        bool    hasStaked;              // Checks if user had already staked in pool\r\n        uint256 stakedSince;            // Weighted blocknumber since last stake.  \r\n        uint256 rewardPoolShare;        // Share of reward pool.\r\n\r\n        //\r\n        // We do some fancy math here. Basically, any point in time, the amount of LOTLs\r\n        // entitled to a user but is pending to be distributed is:\r\n        //\r\n        //   pending reward = (user.amount * pool.accLotlPerShare) - user.rewardDebt\r\n        //\r\n        // Whenever a user deposits or withdraws LP tokens to a pool. Here's what happens:\r\n        //   1. The pool's `accLotlPerShare` (and `lastRewardBlock`) gets updated.\r\n        //   2. User receives the pending reward sent to his/her address.\r\n        //   3. User's `amount` gets updated.\r\n        //   4. User's `rewardDebt` gets updated.\r\n        //\r\n        // In addition to that we do even more fancy stuff here, to calculate the distribution of our 7 day reward pool.\r\n        //  1. First of, we reserve 30% of all minted LOTL to our reward pool. ('lotlRewardPool')\r\n        //  2. We send 90% of all taxes paid to our RewardPool contract.\r\n        //  3. All fees will be swapped to BUSD and sent back to the MasterChef contract.\r\n        //  4. 20% of that BUSD will be burned at burnTokens(amount)\r\n        //  5. The remainder will then go into the 'busdRewardPool'.\r\n        //  6. Then we use calculateRewardPool to calculate all rewards per share for each user and sum them up for each user across all pools he staked in.\r\n        //  7. rewardPerShare = 1 * pool.allocPoint * timeReward * user.amount / totalAllocPoint / lpSupply\r\n        //  8. Then to get your actual reward you need to withdraw your rewards before the next reward pool is distributed or else they will be burned.\r\n        //  9. Rewards are paid out in the function 'withdrawRewards' and are finally calculated as follows.\r\n        //  10. reward = totalRewardPool * user.rewardPoolShare / totalTimeAlloc \r\n     \r\n\r\n\r\n                \r\n    }\r\n\r\n    // Info of each pool.\r\n    struct PoolInfo {\r\n        //CHANGE FOR BSC\r\n        //IBEP20 lpToken;            // Address of LP token contract.\r\n        IERC20 lpToken;             // Address of LP token contract.\r\n        uint8 allocPoint;           // How many allocation points assigned to this pool. LOTLs to distribute per block.\r\n        uint256 lastRewardBlock;     // Last block number that LOTLs distribution occurs.\r\n        uint256 accLotlPerShare;     // Accumulated LOTLs per share, times 1e12. See below.\r\n        uint16 depositFeeBP;        // Deposit fee in basis points.\r\n        uint32 totalTimeAlloc;      // Total amount of time allocation points.\r\n        address []poolUser;         // Addresses of all stakes in pool.\r\n    }\r\n\r\n    // Info for the reward pool.\r\n    // All rewards that haven't been claimed until the next reward distribution will be burned. \r\n    struct Rewards {\r\n        uint32 totalTimeAlloc;      // Total time factor for all stakes.\r\n        uint256 amountBUSD;         // BUSD to distribute among all stakers.\r\n        uint256 amountLOTL;         // LOTL to distribute among all stakers.\r\n        uint256 remainingLOTL;      // Remainder of LOTL.\r\n        address []poolUser;         // Addresses of all stakes in pool.\r\n    }\r\n\r\n    // Lotl to allocate to reward pool.\r\n    uint256 pendingRewardLotl; \r\n    \r\n    // Info of reward pool.\r\n    Rewards public rewardInfo;\r\n\r\n    // The LOTL TOKEN!\r\n    LotlToken public lotl;\r\n\r\n    // Dev address.\r\n    address public devaddr;\r\n\r\n    // RewardPool address.\r\n    IRewardPool public rewardPool;\r\n\r\n    \r\n\r\n    // LOTL tokens created per block.\r\n    uint256 public lotlPerBlock;\r\n\r\n    // Info of each pool.\r\n    PoolInfo[] public poolInfo;\r\n\r\n    // Info of each user that stakes LP tokens.\r\n    // Mapping 0 is reserved for the rewardPool.\r\n    mapping(uint8 => mapping(address => UserInfo)) public userInfo;\r\n\r\n    // Total allocation points. Must be the sum of all allocation points in all pools.\r\n    uint32 public totalAllocPoint = 0;\r\n\r\n\r\n    event Deposit(address indexed user, uint8 indexed pid, uint256 amount);\r\n    event Withdraw(address indexed user, uint8 indexed pid, uint256 amount);\r\n    event WithdrawReward(address indexed user, uint256 amountLotl, uint256 amountBUSD);\r\n    event EmergencyWithdraw(address indexed user, uint8 indexed pid, uint256 amount);\r\n    event SetDevAddress(address indexed user, address indexed newAddress);\r\n    event SetRewardAddress(address indexed user, address indexed newAddress);\r\n    event UpdateMintingRate(address indexed user, uint256 lotlPerBlock);\r\n    \r\n    \r\n\r\n    constructor(\r\n        LotlToken _lotl\r\n    ) public {\r\n        lotl = _lotl;\r\n        devaddr = msg.sender;\r\n        rewardPool = IRewardPool(msg.sender);\r\n    }\r\n\r\n    function poolLength() external view returns (uint8) {\r\n        return uint8(poolInfo.length);\r\n    }\r\n\r\n    // Used to determine wether a pool has already been added.\r\n    mapping(IERC20 => bool) public poolExistence;\r\n\r\n    // Modifier to allow only new pools being added.\r\n    modifier nonDuplicated(IERC20 _lpToken) {\r\n        require(poolExistence[_lpToken] == false, \"nonDuplicated: duplicated\");\r\n        _;\r\n    }\r\n\r\n    // TODO TEST IF ADDING TOKENS AS POOL WORKS \r\n    // Add a new lp to the pool. Can only be called by the owner.\r\n\r\n    function add(uint8 _allocPoint, IERC20 _lpToken, IERC20 _tokenA, IERC20 _tokenB, uint16 _depositFeeBP, bool _withUpdate, bool _isLPPool) public onlyOwner nonDuplicated(_lpToken) {\r\n        require(_depositFeeBP <= 10000, \"add: invalid deposit fee basis points\");\r\n\r\n        require (_allocPoint <= 100, \"add: invalid allocation points\");\r\n        \r\n        if (_withUpdate) {\r\n            massUpdatePools();\r\n        }\r\n        if(_isLPPool)\r\n        {\r\n            rewardPool.addLpToken(_lpToken, _tokenA, _tokenB, _isLPPool);\r\n        }\r\n        else\r\n        {\r\n            rewardPool.addLpToken(_lpToken, _lpToken, _lpToken, _isLPPool);\r\n        }\r\n        totalAllocPoint = totalAllocPoint + _allocPoint;\r\n        poolExistence[_lpToken] = true;\r\n        PoolInfo memory poolToAdd;\r\n        poolToAdd.lpToken = _lpToken;\r\n        poolToAdd.allocPoint =  _allocPoint;\r\n        poolToAdd.lastRewardBlock = block.number;\r\n        poolToAdd.depositFeeBP =  _depositFeeBP;\r\n        poolInfo.push(poolToAdd);\r\n    }\r\n\r\n    // View function to see pending LOTLs on frontend.\r\n    function pendingLotl(uint8 _pid, address _user) external view returns (uint256) {\r\n        PoolInfo storage pool = poolInfo[_pid];\r\n        UserInfo storage user = userInfo[_pid + 1][_user];\r\n        uint256 accLotlPerShare = pool.accLotlPerShare;\r\n        uint256 lpSupply = pool.lpToken.balanceOf(address(this));\r\n        if (block.number > pool.lastRewardBlock && lpSupply != 0) {\r\n            uint256 lotlReward =  (block.number - pool.lastRewardBlock) * lotlPerBlock * pool.allocPoint / totalAllocPoint;\r\n            accLotlPerShare = accLotlPerShare + lotlReward * 1e12 / lpSupply;\r\n        }\r\n        return accLotlPerShare * user.amount / 1e12 - user.rewardDebt;\r\n    }\r\n\r\n    // View function to see pending rewards on frontend.\r\n    // TODO TEST\r\n    function pendingRewards(address _user) external view returns (uint256 _lotl, uint256 _busd) {\r\n        UserInfo storage user = userInfo[0][_user];\r\n        require(user.rewardPoolShare > 0, \"withdraw: not good\");\r\n        if(user.rewardPoolShare > 0){\r\n            uint256 busdPending = rewardInfo.amountBUSD * user.rewardPoolShare / rewardInfo.totalTimeAlloc / 1e12;\r\n            uint256 lotlPending = rewardInfo.amountLOTL * user.rewardPoolShare / rewardInfo.totalTimeAlloc / 1e12;\r\n            return (lotlPending, busdPending);\r\n        }\r\n        else{\r\n            return (0,0);\r\n        }\r\n    }\r\n\r\n    // Update reward variables for all pools. Be careful of gas spending!\r\n    function massUpdatePools() public {\r\n        uint8 length = uint8(poolInfo.length);\r\n        for (uint8 pid = 0; pid < length; ++pid) {\r\n            updatePool(pid);\r\n        }\r\n    }\r\n\r\n    // 28800 blocks = 1 time factor\r\n    // TEST IF DIVIDES WITHOUT REST\r\n    function calculateTimeRewards (uint256 _stakedSince) private returns (uint256)  {\r\n        //return _stakedSince / 28800;\r\n        return _stakedSince;\r\n    } \r\n\r\n    // Update reward variables of the given pool to be up-to-date.\r\n    function updatePool(uint8 _pid) public {\r\n        PoolInfo storage pool = poolInfo[_pid];\r\n        if (block.number <= pool.lastRewardBlock) {\r\n            return;\r\n        }\r\n\r\n        uint256 lpSupply = pool.lpToken.balanceOf(address(this));\r\n        if (lpSupply == 0 || pool.allocPoint == 0) {\r\n            pool.lastRewardBlock = block.number;\r\n            return;\r\n        }\r\n\r\n        if(lotlPerBlock == 0){\r\n            return;\r\n        }\r\n\r\n        uint256 lotlReward = (block.number - pool.lastRewardBlock) * lotlPerBlock * pool.allocPoint / totalAllocPoint;\r\n        //TODO test minting \r\n        lotl.mint(devaddr, lotlReward / 10);\r\n        pendingRewardLotl = pendingRewardLotl + lotlReward / 10 * 3;\r\n        lotl.mint(address(this), lotlReward - lotlReward / 10);\r\n        lotlReward = lotlReward - (lotlReward / 10 * 4);\r\n        pool.accLotlPerShare = pool.accLotlPerShare + lotlReward * 1e12 / lpSupply;\r\n        pool.lastRewardBlock = block.number;\r\n    }\r\n\r\n    // Deposit LP tokens to MasterChef for LOTL allocation.\r\n    function deposit(uint8 _pid, uint256 _amount) public nonReentrant {\r\n        PoolInfo storage pool = poolInfo[_pid];\r\n        UserInfo storage user = userInfo[_pid+uint8(1)][msg.sender];\r\n        UserInfo storage rewardUser = userInfo[0][msg.sender];\r\n        updatePool(_pid);\r\n\r\n        // Save last block number as staking timestamp\r\n        if (user.stakedSince == 0 && _amount > 0)\r\n        {\r\n             //TODO TEST IF FIRST STACKE SETS STAKED SINCE\r\n            user.stakedSince = block.number;\r\n        }\r\n        \r\n        if (user.amount > 0) \r\n        {\r\n            uint256 pending = user.amount * pool.accLotlPerShare / 1e12 - user.rewardDebt;\r\n            if (pending > 0) \r\n            {\r\n                safeLotlTransfer(msg.sender, pending);\r\n            }\r\n        } \r\n        if (_amount > 0) \r\n        {\r\n            pool.lpToken.safeTransferFrom(address(msg.sender), address(this), _amount);\r\n            uint256 taxedAmount = _amount * (1e4 - pool.depositFeeBP) / 1e4;\r\n\r\n            // Holding factor scaling\r\n            if(user.amount > 0)\r\n            {\r\n                user.stakedSince = block.number + (block.number - user.stakedSince) * taxedAmount / (user.amount + taxedAmount);\r\n            }\r\n\r\n            //TODO TEST IF PUSHING WORKS\r\n            if(!user.hasStaked)\r\n            {\r\n                pool.poolUser.push(msg.sender);\r\n                user.hasStaked = true;\r\n\r\n            }\r\n            if(!rewardUser.hasStaked)\r\n            {\r\n                rewardInfo.poolUser.push(msg.sender);\r\n                rewardUser.hasStaked = true;\r\n            }\r\n            if (pool.depositFeeBP > 0) \r\n            {\r\n                uint256 depositFee = _amount - taxedAmount;\r\n                pool.lpToken.safeTransfer(devaddr, depositFee / 10);\r\n                pool.lpToken.safeTransfer(address(rewardPool), depositFee - depositFee / 10);\r\n            } \r\n\r\n            user.amount = user.amount + taxedAmount;\r\n            \r\n        }\r\n        user.rewardDebt = user.amount * pool.accLotlPerShare / 1e12;\r\n        emit Deposit(msg.sender, _pid, _amount);\r\n    }\r\n\r\n    // Withdraw LP tokens from MasterChef.\r\n    function withdraw(uint8 _pid, uint256 _amount) public nonReentrant {\r\n        PoolInfo storage pool = poolInfo[_pid];\r\n        UserInfo storage user = userInfo[_pid + 1][msg.sender];\r\n        require(user.amount >= _amount, \"withdraw: not good\");\r\n        updatePool(_pid);\r\n        uint256 pending = user.amount * pool.accLotlPerShare / 1e12 - user.rewardDebt;\r\n        if (pending > 0) \r\n        {\r\n            safeLotlTransfer(msg.sender, pending);\r\n        }\r\n        if (_amount > 0) \r\n        {\r\n            user.amount = user.amount - _amount;\r\n\r\n            //TODO TEST IF UNSTAKING RESETS stakedSince\r\n            if(user.amount > 0)\r\n            {\r\n                user.stakedSince = block.number;\r\n            }\r\n            else \r\n            {\r\n                user.stakedSince = 0;\r\n            }\r\n            pool.lpToken.safeTransfer(address(msg.sender), _amount);\r\n        }\r\n        user.rewardDebt = user.amount * pool.accLotlPerShare / 1e12;\r\n        emit Withdraw(msg.sender, _pid, _amount);\r\n    }\r\n\r\n    // Withdraw reward pool earnings, if there are any.\r\n    function withdrawReward() public nonReentrant {\r\n        UserInfo storage user = userInfo[0][msg.sender];\r\n        require(user.rewardPoolShare > 0, \"withdraw: not good\");\r\n        uint256 busdPending = rewardInfo.amountBUSD * user.rewardPoolShare / rewardInfo.totalTimeAlloc / 1e12;\r\n        uint256 lotlPending = rewardInfo.amountLOTL * user.rewardPoolShare / rewardInfo.totalTimeAlloc / 1e12;\r\n        rewardInfo.remainingLOTL = rewardInfo.remainingLOTL - lotlPending;\r\n        safeLotlTransfer(msg.sender, lotlPending);\r\n        safeBusdTransfer(msg.sender, busdPending);\r\n        user.rewardPoolShare = 0;\r\n        emit WithdrawReward(msg.sender, lotlPending, busdPending);\r\n    }\r\n\r\n    // Withdraw without caring about rewards. EMERGENCY ONLY.\r\n    function emergencyWithdraw(uint8 _pid) public nonReentrant {\r\n        PoolInfo storage pool = poolInfo[_pid];\r\n        UserInfo storage user = userInfo[_pid + 1][msg.sender];\r\n        uint256 amount = user.amount;\r\n        user.amount = 0;\r\n        user.rewardDebt = 0;\r\n        pool.lpToken.safeTransfer(address(msg.sender), amount);\r\n        emit EmergencyWithdraw(msg.sender, _pid, amount);\r\n    }\r\n\r\n    // Safe LOTL transfer function, just in case if rounding error causes pool to not have enough LOTLs.\r\n    function safeLotlTransfer(address _to, uint256 _amount) internal {\r\n        uint256 lotlBal = lotl.balanceOf(address(this));\r\n        bool transferSuccess = false;\r\n        if (_amount > lotlBal) {\r\n            transferSuccess = lotl.transfer(_to, lotlBal);\r\n        } else {\r\n            transferSuccess = lotl.transfer(_to, _amount);\r\n        }\r\n        require(transferSuccess, \"safeLotlTransfer: transfer failed\");\r\n    }\r\n\r\n\r\n    // Safe BUSD transfer function, just in case if rounding error causes pool to not have enough BUSDs.\r\n    function safeBusdTransfer(address _to, uint256 _amount) internal {\r\n        uint256 busdBal = IERC20(busdAddr).balanceOf(address(this));\r\n        bool transferSuccess = false;\r\n        if (_amount > busdBal) {\r\n            transferSuccess = IERC20(busdAddr).transfer(_to, busdBal);\r\n        } else {\r\n            transferSuccess = IERC20(busdAddr).transfer(_to, _amount);\r\n        }\r\n        require(transferSuccess, \"safeBusdTransfer: transfer failed\");\r\n    }\r\n\r\n\r\n    // Update dev address by the previous dev.\r\n    function setDevAddress(address _devaddr) public {\r\n        require(msg.sender == devaddr, \"dev: wut?\");\r\n        devaddr = _devaddr;\r\n        emit SetDevAddress(msg.sender, _devaddr);\r\n    }\r\n\r\n     // One time set reward address.\r\n    function setRewardAddress(address _rewardAddress) public{\r\n        require(msg.sender == address(rewardPool), \"rewards: wha?\");\r\n        rewardPool = IRewardPool(_rewardAddress);\r\n        emit SetRewardAddress(msg.sender, _rewardAddress);\r\n    }\r\n\r\n   \r\n    // Minting rate will be adjusted every 28800*(8/MintingRate) Blocks\r\n    function updateMintingRate() public onlyOwner {\r\n        massUpdatePools();\r\n        lotlPerBlock = lotlPerBlock / 2;\r\n        emit UpdateMintingRate(msg.sender, lotlPerBlock);\r\n    }\r\n\r\n\r\n    // Start the block rewards.\r\n    function startMinting() public onlyOwner {\r\n        if(lotlPerBlock == 0)\r\n        {\r\n        massUpdatePools();\r\n        lotlPerBlock = 4 * 1e18;\r\n        }\r\n    }\r\n    \r\n\r\n    // Calculates all rewardShares for all users that are registered as stakers. \r\n    /*  TODO TEST\r\n        1. Burning works\r\n        2. rewardPoolShare = 0 for loop\r\n        3. totalTimeALlocation rewardPool\r\n        4. rewardPoolShare formula correct\r\n        5. lotl and busd reward pool correct\r\n    */\r\n\r\n    function calculateRewardPool() external override {\r\n        //require(msg.sender == rewardAddress, \"rewards: wha?\");\r\n        uint8 length = uint8(poolInfo.length);\r\n        uint32 rewardUserlength = uint32(rewardInfo.poolUser.length);\r\n        rewardInfo.amountBUSD =IERC20(busdAddr).balanceOf(address(this));\r\n        rewardInfo.amountLOTL = pendingRewardLotl + rewardInfo.remainingLOTL;\r\n        rewardInfo.remainingLOTL = rewardInfo.amountLOTL;\r\n        pendingRewardLotl = 0;\r\n        rewardInfo.totalTimeAlloc = 0;\r\n        for(uint32 i; i< rewardUserlength; i++){\r\n            UserInfo storage user = userInfo[0][rewardInfo.poolUser[i]];\r\n            user.rewardPoolShare = 0;\r\n        }\r\n\r\n        for (uint8 i=0; i < length; i++){\r\n            PoolInfo storage pool = poolInfo[i];\r\n            uint256 lpSupply = pool.lpToken.balanceOf(address(this));\r\n            uint32 userLength = uint32(pool.poolUser.length);\r\n            poolInfo[i].totalTimeAlloc = 0;\r\n            for(uint32 j; j< userLength; j++){\r\n                UserInfo storage user = userInfo[i+1][pool.poolUser[j]];\r\n                if(user.stakedSince > 0){\r\n                    UserInfo storage rewardUser = userInfo[0][poolInfo[i].poolUser[j]];\r\n                    uint16 timeReward = uint16(calculateTimeRewards(user.stakedSince));\r\n                    pool.totalTimeAlloc = pool.totalTimeAlloc + timeReward;\r\n                    rewardUser.rewardPoolShare = rewardUser.rewardPoolShare + user.amount * 1e12 / totalAllocPoint * pool.allocPoint / lpSupply * timeReward;\r\n\r\n                }\r\n            }\r\n            rewardInfo.totalTimeAlloc = rewardInfo.totalTimeAlloc + pool.totalTimeAlloc;\r\n        }\r\n    }\r\n\r\n    function currentHoldingFactor(uint8 _pid, address _user) public view returns(uint256 holdFactor){\r\n        UserInfo storage user = userInfo[_pid][_user];\r\n        if(user.stakedSince > 0)\r\n        {\r\n            return block.number - user.stakedSince;\r\n        }\r\n        else return 0;\r\n\r\n    }\r\n\r\n\r\n}\r\n",
  "sourcePath": "C:/Users/rostan/development/axo_swap/ropsten_testnet/deploy_masterchef/src/contracts/MasterChef.sol",
  "compiler": {
    "name": "solc",
    "version": "0.8.0+commit.c7dfd78e.Emscripten.clang"
  },
  "schemaVersion": "3.2.3",
  "updatedAt": "2021-04-03T15:12:26.718Z",
  "networkType": "ethereum",
  "devdoc": {
    "kind": "dev",
    "methods": {
      "owner()": {
        "details": "Returns the address of the current owner."
      },
      "renounceOwnership()": {
        "details": "Leaves the contract without owner. It will not be possible to call `onlyOwner` functions anymore. Can only be called by the current owner. NOTE: Renouncing ownership will leave the contract without an owner, thereby removing any functionality that is only available to the owner."
      },
      "transferOwnership(address)": {
        "details": "Transfers ownership of the contract to a new account (`newOwner`). Can only be called by the current owner."
      }
    },
    "version": 1
  },
  "userdoc": {
    "kind": "user",
    "methods": {},
    "version": 1
  }
}