{
  "contractName": "RewardPool",
  "abi": [
    {
      "inputs": [
        {
          "internalType": "address",
          "name": "_chef",
          "type": "address"
        },
        {
          "internalType": "address",
          "name": "_lotl",
          "type": "address"
        }
      ],
      "stateMutability": "nonpayable",
      "type": "constructor"
    },
    {
      "anonymous": false,
      "inputs": [
        {
          "indexed": true,
          "internalType": "address",
          "name": "lotl",
          "type": "address"
        },
        {
          "indexed": false,
          "internalType": "uint256",
          "name": "amount",
          "type": "uint256"
        }
      ],
      "name": "BurnLotl",
      "type": "event"
    },
    {
      "anonymous": false,
      "inputs": [
        {
          "indexed": true,
          "internalType": "address",
          "name": "previousOwner",
          "type": "address"
        },
        {
          "indexed": true,
          "internalType": "address",
          "name": "newOwner",
          "type": "address"
        }
      ],
      "name": "OwnershipTransferred",
      "type": "event"
    },
    {
      "inputs": [],
      "name": "chef",
      "outputs": [
        {
          "internalType": "contract IMasterChef",
          "name": "",
          "type": "address"
        }
      ],
      "stateMutability": "view",
      "type": "function",
      "constant": true
    },
    {
      "inputs": [],
      "name": "lotlToken",
      "outputs": [
        {
          "internalType": "address",
          "name": "",
          "type": "address"
        }
      ],
      "stateMutability": "view",
      "type": "function",
      "constant": true
    },
    {
      "inputs": [
        {
          "internalType": "uint256",
          "name": "",
          "type": "uint256"
        }
      ],
      "name": "lptoken",
      "outputs": [
        {
          "internalType": "contract IERC20",
          "name": "",
          "type": "address"
        }
      ],
      "stateMutability": "view",
      "type": "function",
      "constant": true
    },
    {
      "inputs": [],
      "name": "owner",
      "outputs": [
        {
          "internalType": "address",
          "name": "",
          "type": "address"
        }
      ],
      "stateMutability": "view",
      "type": "function",
      "constant": true
    },
    {
      "inputs": [
        {
          "internalType": "contract IERC20",
          "name": "",
          "type": "address"
        }
      ],
      "name": "poolExistence",
      "outputs": [
        {
          "internalType": "bool",
          "name": "",
          "type": "bool"
        }
      ],
      "stateMutability": "view",
      "type": "function",
      "constant": true
    },
    {
      "inputs": [],
      "name": "renounceOwnership",
      "outputs": [],
      "stateMutability": "nonpayable",
      "type": "function"
    },
    {
      "inputs": [
        {
          "internalType": "contract IERC20",
          "name": "",
          "type": "address"
        }
      ],
      "name": "tokenExistence",
      "outputs": [
        {
          "internalType": "bool",
          "name": "",
          "type": "bool"
        }
      ],
      "stateMutability": "view",
      "type": "function",
      "constant": true
    },
    {
      "inputs": [
        {
          "internalType": "uint256",
          "name": "",
          "type": "uint256"
        }
      ],
      "name": "tokens",
      "outputs": [
        {
          "internalType": "contract IERC20",
          "name": "",
          "type": "address"
        }
      ],
      "stateMutability": "view",
      "type": "function",
      "constant": true
    },
    {
      "inputs": [
        {
          "internalType": "address",
          "name": "newOwner",
          "type": "address"
        }
      ],
      "name": "transferOwnership",
      "outputs": [],
      "stateMutability": "nonpayable",
      "type": "function"
    },
    {
      "inputs": [
        {
          "internalType": "address",
          "name": "inputToken",
          "type": "address"
        },
        {
          "internalType": "address",
          "name": "outputToken",
          "type": "address"
        },
        {
          "internalType": "address[]",
          "name": "_path",
          "type": "address[]"
        },
        {
          "internalType": "bool",
          "name": "overwrite",
          "type": "bool"
        }
      ],
      "name": "setRouterPath",
      "outputs": [],
      "stateMutability": "nonpayable",
      "type": "function"
    },
    {
      "inputs": [],
      "name": "burnLotl",
      "outputs": [],
      "stateMutability": "nonpayable",
      "type": "function"
    },
    {
      "inputs": [
        {
          "internalType": "contract IERC20",
          "name": "_lpToken",
          "type": "address"
        },
        {
          "internalType": "uint256",
          "name": "_amount",
          "type": "uint256"
        }
      ],
      "name": "removeLiquidity",
      "outputs": [],
      "stateMutability": "nonpayable",
      "type": "function"
    },
    {
      "inputs": [],
      "name": "processFees",
      "outputs": [],
      "stateMutability": "nonpayable",
      "type": "function"
    },
    {
      "inputs": [],
      "name": "transferAllBUSD",
      "outputs": [],
      "stateMutability": "nonpayable",
      "type": "function"
    },
    {
      "inputs": [],
      "name": "burn20Percent",
      "outputs": [],
      "stateMutability": "nonpayable",
      "type": "function"
    },
    {
      "inputs": [],
      "name": "removeAllLiquidity",
      "outputs": [],
      "stateMutability": "nonpayable",
      "type": "function"
    },
    {
      "inputs": [],
      "name": "swapAllToBUSD",
      "outputs": [],
      "stateMutability": "nonpayable",
      "type": "function"
    },
    {
      "inputs": [
        {
          "internalType": "contract IERC20",
          "name": "_lpToken",
          "type": "address"
        },
        {
          "internalType": "contract IERC20",
          "name": "_tokenA",
          "type": "address"
        },
        {
          "internalType": "contract IERC20",
          "name": "_tokenB",
          "type": "address"
        },
        {
          "internalType": "bool",
          "name": "isLPToken",
          "type": "bool"
        }
      ],
      "name": "addLpToken",
      "outputs": [],
      "stateMutability": "nonpayable",
      "type": "function"
    }
  ],
  "bytecode": "0x60806040523480156200001157600080fd5b50604051620037c8380380620037c8833981810160405281019062000037919062000654565b6000620000496200058760201b60201c565b9050806000806101000a81548173ffffffffffffffffffffffffffffffffffffffff021916908373ffffffffffffffffffffffffffffffffffffffff1602179055508073ffffffffffffffffffffffffffffffffffffffff16600073ffffffffffffffffffffffffffffffffffffffff167f8be0079c531659141344cd1fd0a4f28419497f9722a3daafe3b4186f6b6457e060405160405180910390a35081600160006101000a81548173ffffffffffffffffffffffffffffffffffffffff021916908373ffffffffffffffffffffffffffffffffffffffff16021790555080600260006101000a81548173ffffffffffffffffffffffffffffffffffffffff021916908373ffffffffffffffffffffffffffffffffffffffff1602179055506040518060400160405280736123d16f767eb39936cdf92e17697764d13c9dfc73ffffffffffffffffffffffffffffffffffffffff1673ffffffffffffffffffffffffffffffffffffffff168152602001734260e200a356bd15ed210ff4da0d0e59bac1a38f73ffffffffffffffffffffffffffffffffffffffff1673ffffffffffffffffffffffffffffffffffffffff1681525060056000736123d16f767eb39936cdf92e17697764d13c9dfc73ffffffffffffffffffffffffffffffffffffffff1673ffffffffffffffffffffffffffffffffffffffff1681526020019081526020016000206000734260e200a356bd15ed210ff4da0d0e59bac1a38f73ffffffffffffffffffffffffffffffffffffffff1673ffffffffffffffffffffffffffffffffffffffff168152602001908152602001600020906002620002b29291906200058f565b506040518060400160405280600260009054906101000a900473ffffffffffffffffffffffffffffffffffffffff1673ffffffffffffffffffffffffffffffffffffffff1673ffffffffffffffffffffffffffffffffffffffff168152602001734260e200a356bd15ed210ff4da0d0e59bac1a38f73ffffffffffffffffffffffffffffffffffffffff1673ffffffffffffffffffffffffffffffffffffffff1681525060056000600260009054906101000a900473ffffffffffffffffffffffffffffffffffffffff1673ffffffffffffffffffffffffffffffffffffffff1673ffffffffffffffffffffffffffffffffffffffff1681526020019081526020016000206000734260e200a356bd15ed210ff4da0d0e59bac1a38f73ffffffffffffffffffffffffffffffffffffffff1673ffffffffffffffffffffffffffffffffffffffff168152602001908152602001600020906002620004189291906200058f565b506040518060400160405280734260e200a356bd15ed210ff4da0d0e59bac1a38f73ffffffffffffffffffffffffffffffffffffffff1673ffffffffffffffffffffffffffffffffffffffff168152602001600260009054906101000a900473ffffffffffffffffffffffffffffffffffffffff1673ffffffffffffffffffffffffffffffffffffffff1673ffffffffffffffffffffffffffffffffffffffff1681525060056000734260e200a356bd15ed210ff4da0d0e59bac1a38f73ffffffffffffffffffffffffffffffffffffffff1673ffffffffffffffffffffffffffffffffffffffff1681526020019081526020016000206000600260009054906101000a900473ffffffffffffffffffffffffffffffffffffffff1673ffffffffffffffffffffffffffffffffffffffff1673ffffffffffffffffffffffffffffffffffffffff1681526020019081526020016000209060026200057e9291906200058f565b505050620006e3565b600033905090565b8280548282559060005260206000209081019282156200060b579160200282015b828111156200060a5782518260006101000a81548173ffffffffffffffffffffffffffffffffffffffff021916908373ffffffffffffffffffffffffffffffffffffffff16021790555091602001919060010190620005b0565b5b5090506200061a91906200061e565b5090565b5b80821115620006395760008160009055506001016200061f565b5090565b6000815190506200064e81620006c9565b92915050565b600080604083850312156200066857600080fd5b600062000678858286016200063d565b92505060206200068b858286016200063d565b9150509250929050565b6000620006a282620006a9565b9050919050565b600073ffffffffffffffffffffffffffffffffffffffff82169050919050565b620006d48162000695565b8114620006e057600080fd5b50565b6130d580620006f36000396000f3fe608060405234801561001057600080fd5b50600436106101165760003560e01c806398fafc69116100a2578063a46bcd5011610071578063a46bcd501461026f578063ba69ebed14610279578063c7312ed214610283578063cbd258b51461029f578063f2fde38b146102cf57610116565b806398fafc69146101fd5780639f297c8b1461022d578063a16b583e14610237578063a201ccf61461025357610116565b80634f64b2be116100e95780634f64b2be1461016b578063715018a61461019b5780637e7ede87146101a557806388a780e5146101d55780638da5cb5b146101df57610116565b8063073dcae61461011b5780630df339a3146101255780631fc8bc5d1461012f578063337b82471461014d575b600080fd5b6101236102eb565b005b61012d610593565b005b61013761085b565b6040516101449190612b93565b60405180910390f35b610155610881565b6040516101629190612aaa565b60405180910390f35b61018560048036038101906101809190612603565b6108a7565b6040516101929190612b78565b60405180910390f35b6101a36108e6565b005b6101bf60048036038101906101ba919061253b565b610a20565b6040516101cc9190612b5d565b60405180910390f35b6101dd610a40565b005b6101e7610c55565b6040516101f49190612aaa565b60405180910390f35b61021760048036038101906102129190612603565b610c7e565b6040516102249190612b78565b60405180910390f35b610235610cbd565b005b610251600480360381019061024c9190612564565b610dfa565b005b61026d600480360381019061026891906125c7565b6113dd565b005b610277611683565b005b6102816117f4565b005b61029d60048036038101906102989190612492565b6118f4565b005b6102b960048036038101906102b4919061253b565b611b1e565b6040516102c69190612b5d565b60405180910390f35b6102e960048036038101906102e49190612469565b611b3e565b005b6102f3611ce7565b73ffffffffffffffffffffffffffffffffffffffff16610311610c55565b73ffffffffffffffffffffffffffffffffffffffff1614610367576040517f08c379a000000000000000000000000000000000000000000000000000000000815260040161035e90612c10565b60405180910390fd5b6000734260e200a356bd15ed210ff4da0d0e59bac1a38f73ffffffffffffffffffffffffffffffffffffffff166370a08231306040518263ffffffff1660e01b81526004016103b69190612aaa565b60206040518083038186803b1580156103ce57600080fd5b505afa1580156103e2573d6000803e3d6000fd5b505050506040513d601f19601f82011682018060405250810190610406919061262c565b9050734260e200a356bd15ed210ff4da0d0e59bac1a38f73ffffffffffffffffffffffffffffffffffffffff1663095ea7b3600160009054906101000a900473ffffffffffffffffffffffffffffffffffffffff16836040518363ffffffff1660e01b8152600401610479929190612b34565b602060405180830381600087803b15801561049357600080fd5b505af11580156104a7573d6000803e3d6000fd5b505050506040513d601f19601f820116820180604052508101906104cb9190612512565b50734260e200a356bd15ed210ff4da0d0e59bac1a38f73ffffffffffffffffffffffffffffffffffffffff1663a9059cbb600160009054906101000a900473ffffffffffffffffffffffffffffffffffffffff16836040518363ffffffff1660e01b815260040161053d929190612b34565b602060405180830381600087803b15801561055757600080fd5b505af115801561056b573d6000803e3d6000fd5b505050506040513d601f19601f8201168201806040525081019061058f9190612512565b5050565b61059b611ce7565b73ffffffffffffffffffffffffffffffffffffffff166105b9610c55565b73ffffffffffffffffffffffffffffffffffffffff161461060f576040517f08c379a000000000000000000000000000000000000000000000000000000000815260040161060690612c10565b60405180910390fd5b60005b6004805490508160ff16101561085857600060048260ff1681548110610661577f4e487b7100000000000000000000000000000000000000000000000000000000600052603260045260246000fd5b9060005260206000200160009054906101000a900473ffffffffffffffffffffffffffffffffffffffff1673ffffffffffffffffffffffffffffffffffffffff166370a08231306040518263ffffffff1660e01b81526004016106c49190612aaa565b60206040518083038186803b1580156106dc57600080fd5b505afa1580156106f0573d6000803e3d6000fd5b505050506040513d601f19601f82011682018060405250810190610714919061262c565b90506000811180156107cd5750734260e200a356bd15ed210ff4da0d0e59bac1a38f73ffffffffffffffffffffffffffffffffffffffff1660048360ff1681548110610789577f4e487b7100000000000000000000000000000000000000000000000000000000600052603260045260246000fd5b9060005260206000200160009054906101000a900473ffffffffffffffffffffffffffffffffffffffff1673ffffffffffffffffffffffffffffffffffffffff1614155b156108445761084360048360ff1681548110610812577f4e487b7100000000000000000000000000000000000000000000000000000000600052603260045260246000fd5b9060005260206000200160009054906101000a900473ffffffffffffffffffffffffffffffffffffffff1682611cef565b5b50808061085090612f8a565b915050610612565b50565b600160009054906101000a900473ffffffffffffffffffffffffffffffffffffffff1681565b600260009054906101000a900473ffffffffffffffffffffffffffffffffffffffff1681565b600481815481106108b757600080fd5b906000526020600020016000915054906101000a900473ffffffffffffffffffffffffffffffffffffffff1681565b6108ee611ce7565b73ffffffffffffffffffffffffffffffffffffffff1661090c610c55565b73ffffffffffffffffffffffffffffffffffffffff1614610962576040517f08c379a000000000000000000000000000000000000000000000000000000000815260040161095990612c10565b60405180910390fd5b600073ffffffffffffffffffffffffffffffffffffffff1660008054906101000a900473ffffffffffffffffffffffffffffffffffffffff1673ffffffffffffffffffffffffffffffffffffffff167f8be0079c531659141344cd1fd0a4f28419497f9722a3daafe3b4186f6b6457e060405160405180910390a360008060006101000a81548173ffffffffffffffffffffffffffffffffffffffff021916908373ffffffffffffffffffffffffffffffffffffffff160217905550565b60086020528060005260406000206000915054906101000a900460ff1681565b610a48611ce7565b73ffffffffffffffffffffffffffffffffffffffff16610a66610c55565b73ffffffffffffffffffffffffffffffffffffffff1614610abc576040517f08c379a0000000000000000000000000000000000000000000000000000000008152600401610ab390612c10565b60405180910390fd5b60005b6003805490508160ff161015610c5257600060038260ff1681548110610b0e577f4e487b7100000000000000000000000000000000000000000000000000000000600052603260045260246000fd5b9060005260206000200160009054906101000a900473ffffffffffffffffffffffffffffffffffffffff1673ffffffffffffffffffffffffffffffffffffffff166370a08231306040518263ffffffff1660e01b8152600401610b719190612aaa565b60206040518083038186803b158015610b8957600080fd5b505afa158015610b9d573d6000803e3d6000fd5b505050506040513d601f19601f82011682018060405250810190610bc1919061262c565b90506000811115610c3e57610c3d60038360ff1681548110610c0c577f4e487b7100000000000000000000000000000000000000000000000000000000600052603260045260246000fd5b9060005260206000200160009054906101000a900473ffffffffffffffffffffffffffffffffffffffff16826113dd565b5b508080610c4a90612f8a565b915050610abf565b50565b60008060009054906101000a900473ffffffffffffffffffffffffffffffffffffffff16905090565b60038181548110610c8e57600080fd5b906000526020600020016000915054906101000a900473ffffffffffffffffffffffffffffffffffffffff1681565b610cc5611ce7565b73ffffffffffffffffffffffffffffffffffffffff16610ce3610c55565b73ffffffffffffffffffffffffffffffffffffffff1614610d39576040517f08c379a0000000000000000000000000000000000000000000000000000000008152600401610d3090612c10565b60405180910390fd5b60006005734260e200a356bd15ed210ff4da0d0e59bac1a38f73ffffffffffffffffffffffffffffffffffffffff166370a08231306040518263ffffffff1660e01b8152600401610d8a9190612aaa565b60206040518083038186803b158015610da257600080fd5b505afa158015610db6573d6000803e3d6000fd5b505050506040513d601f19601f82011682018060405250810190610dda919061262c565b610de49190612e2b565b9050610def81611e41565b610df7611683565b50565b8360001515600760008373ffffffffffffffffffffffffffffffffffffffff1673ffffffffffffffffffffffffffffffffffffffff16815260200190815260200160002060009054906101000a900460ff16151514610e8e576040517f08c379a0000000000000000000000000000000000000000000000000000000008152600401610e8590612c70565b60405180910390fd5b81156112c857600160009054906101000a900473ffffffffffffffffffffffffffffffffffffffff1673ffffffffffffffffffffffffffffffffffffffff163373ffffffffffffffffffffffffffffffffffffffff1614610f24576040517f08c379a0000000000000000000000000000000000000000000000000000000008152600401610f1b90612c50565b60405180910390fd5b6003859080600181540180825580915050600190039060005260206000200160009091909190916101000a81548173ffffffffffffffffffffffffffffffffffffffff021916908373ffffffffffffffffffffffffffffffffffffffff1602179055506001600760008773ffffffffffffffffffffffffffffffffffffffff1673ffffffffffffffffffffffffffffffffffffffff16815260200190815260200160002060006101000a81548160ff0219169083151502179055506000600660008773ffffffffffffffffffffffffffffffffffffffff1673ffffffffffffffffffffffffffffffffffffffff1681526020019081526020016000209050848160000160006101000a81548173ffffffffffffffffffffffffffffffffffffffff021916908373ffffffffffffffffffffffffffffffffffffffff160217905550838160010160006101000a81548173ffffffffffffffffffffffffffffffffffffffff021916908373ffffffffffffffffffffffffffffffffffffffff160217905550600860008573ffffffffffffffffffffffffffffffffffffffff1673ffffffffffffffffffffffffffffffffffffffff16815260200190815260200160002060009054906101000a900460ff166111b5576004849080600181540180825580915050600190039060005260206000200160009091909190916101000a81548173ffffffffffffffffffffffffffffffffffffffff021916908373ffffffffffffffffffffffffffffffffffffffff1602179055506001600860008673ffffffffffffffffffffffffffffffffffffffff1673ffffffffffffffffffffffffffffffffffffffff16815260200190815260200160002060006101000a81548160ff0219169083151502179055505b600860008673ffffffffffffffffffffffffffffffffffffffff1673ffffffffffffffffffffffffffffffffffffffff16815260200190815260200160002060009054906101000a900460ff166112c2576004859080600181540180825580915050600190039060005260206000200160009091909190916101000a81548173ffffffffffffffffffffffffffffffffffffffff021916908373ffffffffffffffffffffffffffffffffffffffff1602179055506001600860008773ffffffffffffffffffffffffffffffffffffffff1673ffffffffffffffffffffffffffffffffffffffff16815260200190815260200160002060006101000a81548160ff0219169083151502179055505b506113d6565b600860008673ffffffffffffffffffffffffffffffffffffffff1673ffffffffffffffffffffffffffffffffffffffff16815260200190815260200160002060009054906101000a900460ff166113d5576004859080600181540180825580915050600190039060005260206000200160009091909190916101000a81548173ffffffffffffffffffffffffffffffffffffffff021916908373ffffffffffffffffffffffffffffffffffffffff1602179055506001600860008773ffffffffffffffffffffffffffffffffffffffff1673ffffffffffffffffffffffffffffffffffffffff16815260200190815260200160002060006101000a81548160ff0219169083151502179055505b5b5050505050565b6113e5611ce7565b73ffffffffffffffffffffffffffffffffffffffff16611403610c55565b73ffffffffffffffffffffffffffffffffffffffff1614611459576040517f08c379a000000000000000000000000000000000000000000000000000000000815260040161145090612c10565b60405180910390fd5b8173ffffffffffffffffffffffffffffffffffffffff1663095ea7b3737a250d5630b4cf539739df2c5dacb4c659f2488d836040518363ffffffff1660e01b81526004016114a8929190612b34565b602060405180830381600087803b1580156114c257600080fd5b505af11580156114d6573d6000803e3d6000fd5b505050506040513d601f19601f820116820180604052508101906114fa9190612512565b506000600660008473ffffffffffffffffffffffffffffffffffffffff1673ffffffffffffffffffffffffffffffffffffffff16815260200190815260200160002060000160009054906101000a900473ffffffffffffffffffffffffffffffffffffffff1690506000600660008573ffffffffffffffffffffffffffffffffffffffff1673ffffffffffffffffffffffffffffffffffffffff16815260200190815260200160002060010160009054906101000a900473ffffffffffffffffffffffffffffffffffffffff169050737a250d5630b4cf539739df2c5dacb4c659f2488d73ffffffffffffffffffffffffffffffffffffffff1663baa2abde83838660008030611608611fc8565b6040518863ffffffff1660e01b815260040161162a9796959493929190612ac5565b6040805180830381600087803b15801561164357600080fd5b505af1158015611657573d6000803e3d6000fd5b505050506040513d601f19601f8201168201806040525081019061167b9190612655565b505050505050565b6000600260009054906101000a900473ffffffffffffffffffffffffffffffffffffffff1673ffffffffffffffffffffffffffffffffffffffff166370a08231306040518263ffffffff1660e01b81526004016116e09190612aaa565b60206040518083038186803b1580156116f857600080fd5b505afa15801561170c573d6000803e3d6000fd5b505050506040513d601f19601f82011682018060405250810190611730919061262c565b905061178161dead82600260009054906101000a900473ffffffffffffffffffffffffffffffffffffffff1673ffffffffffffffffffffffffffffffffffffffff16611fdc9092919063ffffffff16565b600260009054906101000a900473ffffffffffffffffffffffffffffffffffffffff1673ffffffffffffffffffffffffffffffffffffffff167f7585efd15f87b05570dc85bf514268c4d2b4488e8aa1f876d5c3e46840c19178826040516117e99190612cf0565b60405180910390a250565b6117fc611ce7565b73ffffffffffffffffffffffffffffffffffffffff1661181a610c55565b73ffffffffffffffffffffffffffffffffffffffff1614611870576040517f08c379a000000000000000000000000000000000000000000000000000000000815260040161186790612c10565b60405180910390fd5b600160009054906101000a900473ffffffffffffffffffffffffffffffffffffffff1673ffffffffffffffffffffffffffffffffffffffff1663b49b07586040518163ffffffff1660e01b8152600401600060405180830381600087803b1580156118da57600080fd5b505af11580156118ee573d6000803e3d6000fd5b50505050565b6118fc611ce7565b73ffffffffffffffffffffffffffffffffffffffff1661191a610c55565b73ffffffffffffffffffffffffffffffffffffffff1614611970576040517f08c379a000000000000000000000000000000000000000000000000000000000815260040161196790612c10565b60405180910390fd5b6000600560008773ffffffffffffffffffffffffffffffffffffffff1673ffffffffffffffffffffffffffffffffffffffff16815260200190815260200160002060008673ffffffffffffffffffffffffffffffffffffffff1673ffffffffffffffffffffffffffffffffffffffff1681526020019081526020016000209050600084849050905082611a415760008114611a40576040517f08c379a0000000000000000000000000000000000000000000000000000000008152600401611a3790612c90565b60405180910390fd5b5b60005b818160ff161015611b14578286868360ff16818110611a8c577f4e487b7100000000000000000000000000000000000000000000000000000000600052603260045260246000fd5b9050602002016020810190611aa19190612469565b9080600181540180825580915050600190039060005260206000200160009091909190916101000a81548173ffffffffffffffffffffffffffffffffffffffff021916908373ffffffffffffffffffffffffffffffffffffffff1602179055508080611b0c90612f8a565b915050611a44565b5050505050505050565b60076020528060005260406000206000915054906101000a900460ff1681565b611b46611ce7565b73ffffffffffffffffffffffffffffffffffffffff16611b64610c55565b73ffffffffffffffffffffffffffffffffffffffff1614611bba576040517f08c379a0000000000000000000000000000000000000000000000000000000008152600401611bb190612c10565b60405180910390fd5b600073ffffffffffffffffffffffffffffffffffffffff168173ffffffffffffffffffffffffffffffffffffffff161415611c2a576040517f08c379a0000000000000000000000000000000000000000000000000000000008152600401611c2190612bd0565b60405180910390fd5b8073ffffffffffffffffffffffffffffffffffffffff1660008054906101000a900473ffffffffffffffffffffffffffffffffffffffff1673ffffffffffffffffffffffffffffffffffffffff167f8be0079c531659141344cd1fd0a4f28419497f9722a3daafe3b4186f6b6457e060405160405180910390a3806000806101000a81548173ffffffffffffffffffffffffffffffffffffffff021916908373ffffffffffffffffffffffffffffffffffffffff16021790555050565b600033905090565b8173ffffffffffffffffffffffffffffffffffffffff1663095ea7b3737a250d5630b4cf539739df2c5dacb4c659f2488d836040518363ffffffff1660e01b8152600401611d3e929190612b34565b602060405180830381600087803b158015611d5857600080fd5b505af1158015611d6c573d6000803e3d6000fd5b505050506040513d601f19601f82011682018060405250810190611d909190612512565b50737a250d5630b4cf539739df2c5dacb4c659f2488d73ffffffffffffffffffffffffffffffffffffffff16635c11d795826000611de286734260e200a356bd15ed210ff4da0d0e59bac1a38f612062565b30611deb611fc8565b6040518663ffffffff1660e01b8152600401611e0b959493929190612d0b565b600060405180830381600087803b158015611e2557600080fd5b505af1158015611e39573d6000803e3d6000fd5b505050505050565b734260e200a356bd15ed210ff4da0d0e59bac1a38f73ffffffffffffffffffffffffffffffffffffffff1663095ea7b3737a250d5630b4cf539739df2c5dacb4c659f2488d836040518363ffffffff1660e01b8152600401611ea4929190612b34565b602060405180830381600087803b158015611ebe57600080fd5b505af1158015611ed2573d6000803e3d6000fd5b505050506040513d601f19601f82011682018060405250810190611ef69190612512565b50737a250d5630b4cf539739df2c5dacb4c659f2488d73ffffffffffffffffffffffffffffffffffffffff16635c11d795826000611f6a734260e200a356bd15ed210ff4da0d0e59bac1a38f600260009054906101000a900473ffffffffffffffffffffffffffffffffffffffff16612062565b30611f73611fc8565b6040518663ffffffff1660e01b8152600401611f93959493929190612d0b565b600060405180830381600087803b158015611fad57600080fd5b505af1158015611fc1573d6000803e3d6000fd5b5050505050565b6000603c42611fd79190612dd5565b905090565b61205d8363a9059cbb60e01b8484604051602401611ffb929190612b34565b604051602081830303815290604052907bffffffffffffffffffffffffffffffffffffffffffffffffffffffff19166020820180517bffffffffffffffffffffffffffffffffffffffffffffffffffffffff8381831617835250505050612134565b505050565b600080600560008573ffffffffffffffffffffffffffffffffffffffff1673ffffffffffffffffffffffffffffffffffffffff16815260200190815260200160002060008473ffffffffffffffffffffffffffffffffffffffff1673ffffffffffffffffffffffffffffffffffffffff1681526020019081526020016000209050600081805490501161212a576040517f08c379a000000000000000000000000000000000000000000000000000000000815260040161212190612cd0565b60405180910390fd5b8091505092915050565b6000612196826040518060400160405280602081526020017f5361666545524332303a206c6f772d6c6576656c2063616c6c206661696c65648152508573ffffffffffffffffffffffffffffffffffffffff166121fb9092919063ffffffff16565b90506000815111156121f657808060200190518101906121b69190612512565b6121f5576040517f08c379a00000000000000000000000000000000000000000000000000000000081526004016121ec90612cb0565b60405180910390fd5b5b505050565b606061220a8484600085612213565b90509392505050565b606082471015612258576040517f08c379a000000000000000000000000000000000000000000000000000000000815260040161224f90612bf0565b60405180910390fd5b61226185612327565b6122a0576040517f08c379a000000000000000000000000000000000000000000000000000000000815260040161229790612c30565b60405180910390fd5b6000808673ffffffffffffffffffffffffffffffffffffffff1685876040516122c99190612a93565b60006040518083038185875af1925050503d8060008114612306576040519150601f19603f3d011682016040523d82523d6000602084013e61230b565b606091505b509150915061231b82828661233a565b92505050949350505050565b600080823b905060008111915050919050565b6060831561234a5782905061239a565b60008351111561235d5782518084602001fd5b816040517f08c379a00000000000000000000000000000000000000000000000000000000081526004016123919190612bae565b60405180910390fd5b9392505050565b6000813590506123b081613043565b92915050565b60008083601f8401126123c857600080fd5b8235905067ffffffffffffffff8111156123e157600080fd5b6020830191508360208202830111156123f957600080fd5b9250929050565b60008135905061240f8161305a565b92915050565b6000815190506124248161305a565b92915050565b60008135905061243981613071565b92915050565b60008135905061244e81613088565b92915050565b60008151905061246381613088565b92915050565b60006020828403121561247b57600080fd5b6000612489848285016123a1565b91505092915050565b6000806000806000608086880312156124aa57600080fd5b60006124b8888289016123a1565b95505060206124c9888289016123a1565b945050604086013567ffffffffffffffff8111156124e657600080fd5b6124f2888289016123b6565b9350935050606061250588828901612400565b9150509295509295909350565b60006020828403121561252457600080fd5b600061253284828501612415565b91505092915050565b60006020828403121561254d57600080fd5b600061255b8482850161242a565b91505092915050565b6000806000806080858703121561257a57600080fd5b60006125888782880161242a565b94505060206125998782880161242a565b93505060406125aa8782880161242a565b92505060606125bb87828801612400565b91505092959194509250565b600080604083850312156125da57600080fd5b60006125e88582860161242a565b92505060206125f98582860161243f565b9150509250929050565b60006020828403121561261557600080fd5b60006126238482850161243f565b91505092915050565b60006020828403121561263e57600080fd5b600061264c84828501612454565b91505092915050565b6000806040838503121561266857600080fd5b600061267685828601612454565b925050602061268785828601612454565b9150509250929050565b600061269d83836126a9565b60208301905092915050565b6126b281612e7c565b82525050565b6126c181612e7c565b82525050565b60006126d282612d7a565b6126dc8185612da8565b93506126e783612d65565b8060005b8381101561271f576126fc82613012565b6127068882612691565b975061271183612d9b565b9250506001810190506126eb565b5085935050505092915050565b61273581612e8e565b82525050565b600061274682612d85565b6127508185612db9565b9350612760818560208601612f3d565b80840191505092915050565b61277581612ee3565b82525050565b61278481612f07565b82525050565b61279381612f2b565b82525050565b60006127a482612d90565b6127ae8185612dc4565b93506127be818560208601612f3d565b6127c781613025565b840191505092915050565b60006127df602683612dc4565b91507f4f776e61626c653a206e6577206f776e657220697320746865207a65726f206160008301527f64647265737300000000000000000000000000000000000000000000000000006020830152604082019050919050565b6000612845602683612dc4565b91507f416464726573733a20696e73756666696369656e742062616c616e636520666f60008301527f722063616c6c00000000000000000000000000000000000000000000000000006020830152604082019050919050565b60006128ab602083612dc4565b91507f4f776e61626c653a2063616c6c6572206973206e6f7420746865206f776e65726000830152602082019050919050565b60006128eb601d83612dc4565b91507f416464726573733a2063616c6c20746f206e6f6e2d636f6e74726163740000006000830152602082019050919050565b600061292b601183612dc4565b91507f636865663a2075206e6f206d61737465720000000000000000000000000000006000830152602082019050919050565b600061296b601983612dc4565b91507f6e6f6e4475706c6963617465643a206475706c696361746564000000000000006000830152602082019050919050565b60006129ab601c83612dc4565b91507f736574526f75746572506174683a20414c5245414459204558495354000000006000830152602082019050919050565b60006129eb602a83612dc4565b91507f5361666545524332303a204552433230206f7065726174696f6e20646964206e60008301527f6f742073756363656564000000000000000000000000000000000000000000006020830152604082019050919050565b6000612a51601b83612dc4565b91507f676574526f75746572506174683a204d495353494e47205041544800000000006000830152602082019050919050565b612a8d81612ecc565b82525050565b6000612a9f828461273b565b915081905092915050565b6000602082019050612abf60008301846126b8565b92915050565b600060e082019050612ada600083018a6126b8565b612ae760208301896126b8565b612af46040830188612a84565b612b01606083018761278a565b612b0e608083018661278a565b612b1b60a08301856126b8565b612b2860c0830184612a84565b98975050505050505050565b6000604082019050612b4960008301856126b8565b612b566020830184612a84565b9392505050565b6000602082019050612b72600083018461272c565b92915050565b6000602082019050612b8d600083018461276c565b92915050565b6000602082019050612ba8600083018461277b565b92915050565b60006020820190508181036000830152612bc88184612799565b905092915050565b60006020820190508181036000830152612be9816127d2565b9050919050565b60006020820190508181036000830152612c0981612838565b9050919050565b60006020820190508181036000830152612c298161289e565b9050919050565b60006020820190508181036000830152612c49816128de565b9050919050565b60006020820190508181036000830152612c698161291e565b9050919050565b60006020820190508181036000830152612c898161295e565b9050919050565b60006020820190508181036000830152612ca98161299e565b9050919050565b60006020820190508181036000830152612cc9816129de565b9050919050565b60006020820190508181036000830152612ce981612a44565b9050919050565b6000602082019050612d056000830184612a84565b92915050565b600060a082019050612d206000830188612a84565b612d2d602083018761278a565b8181036040830152612d3f81866126c7565b9050612d4e60608301856126b8565b612d5b6080830184612a84565b9695505050505050565b60008190508160005260206000209050919050565b600081549050919050565b600081519050919050565b600081519050919050565b6000600182019050919050565b600082825260208201905092915050565b600081905092915050565b600082825260208201905092915050565b6000612de082612ecc565b9150612deb83612ecc565b9250827fffffffffffffffffffffffffffffffffffffffffffffffffffffffffffffffff03821115612e2057612e1f612fb4565b5b828201905092915050565b6000612e3682612ecc565b9150612e4183612ecc565b925082612e5157612e50612fe3565b5b828204905092915050565b600073ffffffffffffffffffffffffffffffffffffffff82169050919050565b6000612e8782612eac565b9050919050565b60008115159050919050565b6000612ea582612e7c565b9050919050565b600073ffffffffffffffffffffffffffffffffffffffff82169050919050565b6000819050919050565b600060ff82169050919050565b6000612eee82612ef5565b9050919050565b6000612f0082612eac565b9050919050565b6000612f1282612f19565b9050919050565b6000612f2482612eac565b9050919050565b6000612f3682612ecc565b9050919050565b60005b83811015612f5b578082015181840152602081019050612f40565b83811115612f6a576000848401525b50505050565b6000612f83612f7e83613036565b612e5c565b9050919050565b6000612f9582612ed6565b915060ff821415612fa957612fa8612fb4565b5b600182019050919050565b7f4e487b7100000000000000000000000000000000000000000000000000000000600052601160045260246000fd5b7f4e487b7100000000000000000000000000000000000000000000000000000000600052601260045260246000fd5b600061301e8254612f70565b9050919050565b6000601f19601f8301169050919050565b60008160001c9050919050565b61304c81612e7c565b811461305757600080fd5b50565b61306381612e8e565b811461306e57600080fd5b50565b61307a81612e9a565b811461308557600080fd5b50565b61309181612ecc565b811461309c57600080fd5b5056fea2646970667358221220d623c76563d9e0eac39e1fc80450859feda33d57c996619e03ce82fb4c37447a64736f6c63430008000033",
  "immutableReferences": {},
  "source": "pragma solidity ^0.8.0;\r\n\r\nimport \"@openzeppelin/contracts/access/Ownable.sol\";\r\nimport \"@openzeppelin/contracts/token/ERC20/utils/SafeERC20.sol\";\r\nimport \"@openzeppelin/contracts/token/ERC20/IERC20.sol\";\r\nimport \"./libs/Constants.sol\";\r\nimport \"./libs/IPancakeRouter02.sol\";\r\nimport \"./libs/IMasterChef.sol\";\r\nimport \"./libs/IRewardPool.sol\";\r\n\r\n// CHANGE FOR BSC\r\n//import \"./libs/SafeBEP20.sol\";\r\n//import \"./libs/IBEP20.sol\";\r\n\r\n\r\n\r\n\r\ncontract RewardPool is Ownable, Constants, IRewardPool {\r\n    using SafeERC20 for IERC20;\r\n    IMasterChef public chef;\r\n    address public lotlToken;\r\n\r\n    // Tokens associated with the LP pair. \r\n    struct LpTokenPair {\r\n    \tIERC20 tokenA;\r\n        IERC20 tokenB;\r\n\r\n    }\r\n    // All differen LP tokens registered.\r\n    IERC20[] public lptoken;\r\n\t// All different tokens registered.\r\n\tIERC20[] public tokens; \r\n    // Swapping paths.\r\n    mapping(address => mapping(address => address[])) paths;\r\n\t// Maps the LP pair to the tokens \r\n\tmapping (IERC20 => LpTokenPair) lpPairs;\r\n\t// Used to determine wether a pool has already been added.\r\n    mapping(IERC20 => bool) public poolExistence;\r\n    // Used to determine wether a token has already been added.\r\n    mapping(IERC20 => bool) public tokenExistence;\r\n\t// Modifier to restrict access to owner and masterChef address.\r\n\r\n\r\n    // Modifier to allow only new pools being added.\r\n    modifier nonDuplicated(IERC20 _lpToken) {\r\n        require(poolExistence[_lpToken] == false, \"nonDuplicated: duplicated\");\r\n        _;\r\n    }\r\n\r\n    event BurnLotl(address indexed lotl, uint256 amount);\r\n\r\n  \tconstructor(address _chef, address _lotl) public {\r\n  \t\tchef = IMasterChef(_chef);\r\n        lotlToken = _lotl;\r\n\r\n\r\n  \t\t // Sell Tokens Paths BSC\r\n         /*\r\n\t\tpaths[wbnbAddr][busdAddr] = [wbnbAddr, busdAddr];\r\n\t\tpaths[usdtAddr][busdAddr] = [usdtAddr, busdAddr];\r\n\t\tpaths[btcbAddr][busdAddr] = [btcbAddr, wbnbAddr, busdAddr];\r\n\t\tpaths[wethAddr][busdAddr] = [wethAddr, wbnbAddr, busdAddr];\r\n\t\tpaths[daiAddr][busdAddr] = [daiAddr, busdAddr];\r\n\t\tpaths[usdcAddr][busdAddr] = [usdcAddr, busdAddr];\r\n\t\tpaths[dotAddr][busdAddr] = [dotAddr, wbnbAddr, busdAddr];\r\n\t\tpaths[cakeAddr][busdAddr] = [cakeAddr, wbnbAddr, busdAddr];\r\n\t\tpaths[worldAddr][busdAddr] = [worldAddr, wbnbAddr, busdAddr];\r\n\t\tpaths[gnyAddr][busdAddr] = [gnyAddr, wbnbAddr, busdAddr];\r\n\t\tpaths[vaiAddr][busdAddr] = [vaiAddr, ustAddr, wbnbAddr, busdAddr];\r\n\t\tpaths[bethAddr, busdAddr] = [bethAddr, wethAddr, wbnbAddr, busdAddr];\r\n        */\r\n\r\n        // Ropsten paths\r\n        paths[wbnbAddr][busdAddr] = [wbnbAddr, busdAddr];\r\n        paths[lotlToken][busdAddr] = [lotlToken, busdAddr];\r\n        paths[busdAddr][lotlToken] = [busdAddr, lotlToken];\r\n\r\n  \t\t}\r\n\r\n\r\n\r\n\r\n  \t// Function to add router paths, needed if new LP pairs with new tokens are added.\r\n  \tfunction setRouterPath(address inputToken, address outputToken, address[] calldata _path, bool overwrite) external onlyOwner {\r\n        address[] storage path = paths[inputToken][outputToken];\r\n        uint256 length = _path.length;\r\n        if (!overwrite) {\r\n            require(length == 0, \"setRouterPath: ALREADY EXIST\");\r\n        }\r\n        for (uint8 i = 0; i < length; i++) {\r\n            path.push(_path[i]);\r\n        }\r\n    }\r\n\r\n    // Uses input token and output token to determine best swapping path.\r\n    function getRouterPath(address inputToken, address outputToken) private view returns (address[] storage){\r\n        address[] storage path = paths[inputToken][outputToken];\r\n        require(path.length > 0, \"getRouterPath: MISSING PATH\");\r\n        return path;\r\n    }\r\n\r\n  \t\r\n\r\n    // Given X input tokens, return Y output tokens without concern about minimum/slippage.\r\n    function swapToBusd(IERC20 _inputToken, uint256 _amount) private {\r\n        _inputToken.approve(routerAddr, _amount);\r\n        IPancakeRouter02(routerAddr).swapExactTokensForTokensSupportingFeeOnTransferTokens(\r\n            _amount,\r\n            0,\r\n            getRouterPath(address(_inputToken), busdAddr),\r\n            address(this),\r\n            getTxDeadline()\r\n        );\r\n    }\r\n\r\n    // Swaps BUSD to LOTL without concern about minimum/slippage.\r\n    function swapToLotl(uint256 _amount) private {\r\n        IERC20(busdAddr).approve(routerAddr, _amount);\r\n        IPancakeRouter02(routerAddr).swapExactTokensForTokensSupportingFeeOnTransferTokens(\r\n            _amount,\r\n            0,\r\n            getRouterPath(busdAddr, lotlToken),\r\n            address(this),\r\n            getTxDeadline()\r\n        );\r\n    }\r\n\r\n    // Burns LOTL\r\n    function burnLotl() public {\r\n        uint256 amount = IERC20(lotlToken).balanceOf(address(this));\r\n        IERC20(lotlToken).safeTransfer(burnAddr,amount);\r\n        emit BurnLotl(lotlToken, amount);\r\n    }\r\n    \r\n\r\n    // Given X input LP tokens, returns X,Y output tokens without concern about minimum/slippage.\r\n    function removeLiquidity(IERC20 _lpToken, uint256 _amount) public onlyOwner {\r\n        _lpToken.approve(routerAddr, _amount);\r\n    \tIERC20 _tokenA = lpPairs[_lpToken].tokenA;\r\n    \tIERC20 _tokenB = lpPairs[_lpToken].tokenB;\r\n        IPancakeRouter02(routerAddr).removeLiquidity(\r\n            address(_tokenA),\r\n            address(_tokenB),\r\n            _amount,\r\n            0,\r\n            0,\r\n            address(this),\r\n            getTxDeadline()\r\n        );\r\n    }\r\n\r\n    // Returns current time + 60 second.\r\n    function getTxDeadline() private view returns (uint256){\r\n        return block.timestamp + 60;\r\n\r\n    }\r\n\r\n    // This function will be called every 7 days.\r\n    // Turns all LP tokens into normal tokens and turns them to BUSD.\r\n    // Then transfers them to the MasterChef contract and initiates the reward pool distribution.\r\n    // Reverts on failure to transfer.\r\n    function processFees() public onlyOwner{\r\n\r\n    \tremoveAllLiquidity;\r\n        swapAllToBUSD;\r\n        burn20Percent;\r\n        transferAllBUSD;\r\n    \tchef.calculateRewardPool();\r\n    }\r\n\r\n    function transferAllBUSD () public onlyOwner {\r\n        uint256 amount = IERC20(busdAddr).balanceOf(address(this));\r\n        IERC20(busdAddr).approve(address(chef), amount);\r\n        IERC20(busdAddr).transfer(address(chef), amount);\r\n    }\r\n    \r\n\r\n    function burn20Percent() public onlyOwner {\r\n        uint256 toBurn = IERC20(busdAddr).balanceOf(address(this)) / 5;\r\n        swapToLotl(toBurn);\r\n        burnLotl();\r\n    }\r\n    \r\n\r\n    function removeAllLiquidity () public onlyOwner {\r\n        for(uint8 i; i < lptoken.length; i++)\r\n        {\r\n            uint256 lpAmount = lptoken[i].balanceOf(address(this));\r\n            if(lpAmount > 0)\r\n            {\r\n                removeLiquidity(lptoken[i], lpAmount);\r\n            }\r\n        }\r\n    }\r\n\r\n    function swapAllToBUSD () public onlyOwner {\r\n        for(uint8 i; i < tokens.length; i++){\r\n            uint256 tokenAmount = tokens[i].balanceOf(address(this));\r\n            if(tokenAmount > 0 && tokens[i] != IERC20(busdAddr)){\r\n                swapToBusd(tokens[i], tokenAmount);\r\n            }\r\n        }\r\n    }\r\n    \r\n\r\n   \t// Add new LP tokens and tokens to the existing storage, can only be called via MasterChef contract.\r\n    function addLpToken(IERC20 _lpToken, IERC20 _tokenA, IERC20 _tokenB, bool isLPToken) public override nonDuplicated(_lpToken){\r\n        if(isLPToken)\r\n        {\r\n            require(msg.sender == address(chef) ,\"chef: u no master\");\r\n    \t\tlptoken.push(_lpToken);\r\n    \t\tpoolExistence[_lpToken] = true;\r\n    \t\tLpTokenPair storage lp = lpPairs[_lpToken];\r\n    \t\tlp.tokenA = _tokenA;\r\n    \t\tlp.tokenB = _tokenB;\r\n    \t\tif(!tokenExistence[_tokenB])\r\n            {\r\n    \t\t\ttokens.push(_tokenB);\r\n    \t\t\ttokenExistence[_tokenB] = true;\r\n    \t\t}\r\n    \t\tif(!tokenExistence[_tokenA])\r\n            {\r\n    \t\t\ttokens.push(_tokenA);\r\n    \t\t\ttokenExistence[_tokenA] = true;\r\n    \t\t}\r\n        }\r\n\r\n        else \r\n        {\r\n            if(!tokenExistence[_lpToken])\r\n            {\r\n            tokens.push(_lpToken);\r\n            tokenExistence[_lpToken] = true;\r\n            }\r\n\r\n    \t}\r\n    }\r\n\r\n\r\n    \r\n    \r\n\r\n}\r\n\r\n",
  "sourcePath": "C:/Users/rostan/development/axo_swap/ropsten_testnet/deploy_masterchef/src/contracts/RewardPool.sol",
  "compiler": {
    "name": "solc",
    "version": "0.8.0+commit.c7dfd78e.Emscripten.clang"
  },
  "schemaVersion": "3.2.3",
  "updatedAt": "2021-04-03T15:12:26.742Z",
  "networkType": "ethereum",
  "devdoc": {
    "kind": "dev",
    "methods": {
      "owner()": {
        "details": "Returns the address of the current owner."
      },
      "renounceOwnership()": {
        "details": "Leaves the contract without owner. It will not be possible to call `onlyOwner` functions anymore. Can only be called by the current owner. NOTE: Renouncing ownership will leave the contract without an owner, thereby removing any functionality that is only available to the owner."
      },
      "transferOwnership(address)": {
        "details": "Transfers ownership of the contract to a new account (`newOwner`). Can only be called by the current owner."
      }
    },
    "version": 1
  },
  "userdoc": {
    "kind": "user",
    "methods": {},
    "version": 1
  }
}